:020000040800F2
:1000000000500020710F0008C90E0008CF0E000834
:10001000D50E0008DB0E0008E10E0008000000000D
:10002000000000000000000000000000E70E0008D3
:10003000F30E000800000000FF0E00080B0F000880
:10004000B90F0008B90F0008B90F0008B90F000870
:10005000B90F0008B90F0008B90F0008B90F000860
:10006000B90F0008B90F0008B90F0008B90F000850
:10007000B90F0008B90F0008B90F0008B90F000840
:10008000B90F0008B90F0008190F0008B90F0008D0
:10009000B90F0008B90F0008B90F00082D0F0008AC
:1000A000B90F0008B90F0008B90F0008B90F000810
:1000B000B90F0008B90F0008B90F0008B90F000800
:1000C000B90F0008B90F0008B90F0008B90F0008F0
:1000D000B90F0008B90F0008B90F0008B90F0008E0
:1000E0003D0F0008B90F0008B90F0008000000001C
:1000F0000000000000000000000000000000000000
:0C01000000000000000000005FF808F1A3
:10010C0010B5054C237833B9044B13B10448AFF345
:10011C0000800123237010BD0C00002000000000A3
:10012C00F432000808B5034B1BB103490348AFF385
:10013C00008008BD0000000010000020F432000810
:10014C0080B584B000AF3B1D00221A605A609A60E3
:10015C0000237B600123BB600723FB603B1D19461A
:10016C00054801F025FC0346002B01D000F040FBB4
:10017C0000BF1037BD4680BD2800002080B584B07C
:10018C0000AF3B1D00221A605A609A6001237B600D
:10019C000123BB600723FB603B1D1946054801F09A
:1001AC0007FC0346002B01D000F022FB00BF1037E8
:1001BC00BD4680BD2800002080B582B000AF03464C
:1001CC00FB80FB881946444802F020F80346002BBC
:1001DC0014BF01230023DAB2404B1A70FB88194676
:1001EC003D4802F013F80346002B14BF01230023F3
:1001FC00DAB23A4B5A70394B1A78384B5B789A42D0
:10020C00DFD1364B1B7883F00103DBB2002B48D0D7
:10021C00324B5B7883F00103DBB2002B41D0FB88BF
:10022C00B3F5007F03D12E4B01221A702CE0FB8812
:10023C00B3F5806F03D12A4B02221A7024E0FB889D
:10024C00B3F5006F03D1264B04221A701CE0FB8817
:10025C00B3F5805F03D1224B08221A7014E0FB889F
:10026C00B3F5004F03D11E4B10221A700CE01C4B3F
:10027C001B7823F01F03DAB2194B1A7001224FF4CA
:10028C000051184801F0D9FF154B1A78144B5B78C4
:10029C009A4213D000224FF40051124801F0CDFFC6
:1002AC000CE00F4B1B7823F01F03DAB20C4B1A70C7
:1002BC0001224FF400510B4801F0BFFF08490A48D6
:1002CC0000F0FFFB4FF40051064801F0CEFF00BFD9
:1002DC000837BD4680BD00BF00080140DC0000208F
:1002EC00B000002000100140B800002080B582B0A2
:1002FC0000AF78605E4801F04FFAFFF721FF5C48D1
:10030C0000F0B4FF4FF47A71594801F089F858485D
:10031C0001F076FA03469AB2564B5A80544801F0D3
:10032C0053F8FFF72BFF524800F0A0FF4FF47A71FF
:10033C004F4801F075F84E4801F062FA03469AB244
:10034C004C4B9A804A4801F03FF84A4B9B88002B53
:10035C0018D1484B5B8840F2DC52934212D9454B82
:10036C005B8840F6C31293420CD8424B1B785BB2AD
:10037C0003F01F035BB243F020035BB2DAB23D4BD8
:10038C001A705FE03B4B5B88B3F57A6F18D9394B29
:10039C009B8840F2DC52934212D9364B9B8840F634
:1003AC00C31293420CD8334B1B785BB203F01F0380
:1003BC005BB243F040035BB2DAB22E4B1A7041E0F1
:1003CC002C4B9B88B3F57A6F18D92A4B5B8840F27B
:1003DC00DC52934212D9274B5B8840F6C3129342EE
:1003EC000CD8244B1B785BB203F01F035BB243F0B9
:1003FC0060035BB2DAB21F4B1A7023E01D4B5B88B3
:10040C00002B18D11B4B9B8840F2DC52934212D923
:10041C00184B9B8840F6C31293420CD8154B1B7893
:10042C005BB203F01F035BB263F07F035BB2DAB223
:10043C00104B1A7006E00F4B1B7803F01F03DAB257
:10044C000C4B1A700B4B1A780A4B5B789A4203D000
:10045C000849094800F035FB064B1A78054B5A70D1
:10046C00034801F0E3F800BF0837BD4680BD00BF6C
:10047C0028000020B0000020B800002080B500AF9C
:10048C0000F096FD00F064F800F030F900F0BAF8D6
:10049C0000F0F6F801224FF40051284801F0CDFE8F
:1004AC00274B4FF480721A80254B264A5A60244BF6
:1004BC0010221A81224B234ADA60214B224A1A61FC
:1004CC001F4B0F229A771E4B0122DA771C4B01220D
:1004DC0083F820201A4B012283F82120184B032289
:1004EC0083F82220164BE7221A75154BE7225A7512
:1004FC00134BE7229A75124BE722DA75104BE72261
:10050C001A760F4B7E225A760D4B7E229A760C4B26
:10051C007E22DA760A4B7E221A77094B7E225A7794
:10052C00074800F06AF94FF4FA7000F0A3FD074891
:10053C0001F07CF8C82000F09DFDFEE700100140A2
:10054C00B8000020000801405800002028000020BE
:10055C0080B594B000AF07F128032822002118467B
:10056C0002F0BAFE07F1140300221A605A609A6076
:10057C00DA601A613B1D00221A605A609A60DA60D8
:10058C000123BB624FF48033FB6200233B630123E6
:10059C00BB6302237B644FF48033BB644FF40023B2
:1005AC00FB6407F12803184601F090FE0346002B6C
:1005BC0001D000F01DF90F237B610223BB610023E6
:1005CC00FB6100233B6200237B6207F114030121D2
:1005DC00184602F0FDF80346002B01D000F008F994
:1005EC0002237B604FF48043FB603B1D184602F0F6
:1005FC0073FA0346002B01D000F0FAF800BF503715
:10060C00BD4680BD80B584B000AF3B1D00221A6092
:10061C005A609A60184B194A1A60174B00229A605C
:10062C00154B00221A73144B00221A75124B4FF4FF
:10063C006022DA61104B00225A600F4B01221A61C2
:10064C000D4800F03BFD0346002B01D000F0D0F824
:10065C0000237B600123BB600023FB603B1D19461C
:10066C00054801F0A5F90346002B01D000F0C0F8B5
:10067C0000BF1037BD4680BD28000020002401407B
:10068C0080B500AF174B184A1A60164B4FF48272A4
:10069C005A60144B00229A60124B0022DA60114B04
:1006AC0000221A610F4B00225A610E4B4FF400725C
:1006BC009A610C4B3022DA610A4B00221A62094B08
:1006CC0000225A62074B00229A62064B0A22DA6217
:1006DC00044802F077FB0346002B01D000F088F8A9
:1006EC0000BF80BD580000200030014080B588B0AC
:1006FC0000AF07F1100300221A605A609A60DA60AA
:10070C00374B9B69364A43F010039361344B9B691A
:10071C0003F01003FB60FB68314B9B69304A43F0DC
:10072C00200393612E4B9B6903F02003BB60BB68D5
:10073C002B4B9B692A4A43F004039361284B9B691A
:10074C0003F004037B607B6800224FF400512548C2
:10075C0001F073FD00224FF48871234801F06DFD08
:10076C004FF400533B6101237B610023BB610223E7
:10077C00FB6107F1100319461A4801F0C3FB4FF453
:10078C0088733B6101237B610023BB610223FB6106
:10079C0007F110031946144801F0B4FB4FF41E4343
:1007AC003B61124B7B610123BB6107F110031946BE
:1007BC000D4801F0A7FB00220021172001F06BFB74
:1007CC00172001F084FB00220021282001F063FB9C
:1007DC00282001F07CFB00BF2037BD4680BD00BF48
:1007EC0000100240001001400008014000003110D0
:1007FC0080B400AF72B600BFFEE780B582B000AF28
:10080C007860786800F09FF8786800F06CF87B6886
:10081C0093F82030202B03D97B68202283F82020EA
:10082C00786800F07FF9786800F02AFA7B6893F812
:10083C0020301A461121786800F0C5F87B6893F8CF
:10084C0020301A461221786800F0BDF87B6893F8C6
:10085C0020301A461321786800F0B5F87B6893F8BD
:10086C0020301A461421786800F0ADF87B6893F8B4
:10087C0020301A461521786800F0A5F87B6893F8AB
:10088C0020301A461621786800F09DF8786800F040
:10089C000AFA78220021786800F095F800220121EC
:1008AC00786800F090F83F220221786800F08BF80D
:1008BC0040220421786800F086F800221C21786818
:1008CC0000F081F8786800F04EF8786800F063F872
:1008DC00786800F026FA786800F0DAF801231846F8
:1008EC000837BD4680BD80B582B000AF78607B68AC
:1008FC0058687B681B880022194601F09EFC00BFDB
:10090C000837BD4680BD80B582B000AF78607B688B
:10091C0058687B681B880122194601F08EFC00BFC9
:10092C000837BD4680BD80B582B000AF78607B686B
:10093C00D8687B681B890022194601F07EFC00BF39
:10094C000837BD4680BD80B582B000AF78607B684B
:10095C00D8687B681B890122194601F06EFC00BF28
:10096C000837BD4680BD80B584B000AF786078682C
:10097C00FFF7D9FFE123FB737B68186907F10F01BF
:10098C006423012202F0A2FA7868FFF7DCFF00BFB3
:10099C001037BD4680BD80B584B000AF78607868F4
:1009AC00FFF7C1FFE223FB737B68186907F10F01A6
:1009BC006423012202F08AFA7868FFF7C4FF00BFB3
:1009CC001037BD4680BD80B584B000AF78600B4653
:1009DC00FB701346BB707868FFF7A5FFFB7803F03C
:1009EC001F03DBB243F02003DBB2FB737B68186997
:1009FC0007F10F016423012202F068FA7B68186981
:100A0C00B91C6423012202F061FA7868FFF79BFF9E
:100A1C0000BF1037BD4680BD80B586B000AFF86012
:100A2C007A601A460B46FB721346BB72F868FFF7E6
:100A3C007AFFFB7A03F01F03DBB243F02003DBB237
:100A4C00FB75FB68186907F117016423012202F09A
:100A5C003DFAFB681869BB7A9AB26423796802F094
:100A6C0035FAF868FFF76FFF00BF1837BD4680BD39
:100A7C0080B582B000AF7860786800F052F97A22C5
:100A8C0000217868FFF79FFF00BF0837BD4680BD87
:100A9C0080B582B000AF78607868FFF724FF786883
:100AAC00FFF779FF786800F03CF97B220021786829
:100ABC00FFF789FF7868FFF726FF00BF0837BD46B0
:100ACC0080BD80B584B000AF786039607B6893F8E6
:100ADC002030FB737868FFF706FF7868FFF7C8FFD4
:100AEC007868FFF740FF7868FFF71DFFA023BB7302
:100AFC007B68186907F10E016423012202F0E6F904
:100B0C007B681869FB7B9AB26423396802F0DEF9C2
:100B1C007868FFF718FF7868FFF7F5FE00BF10370D
:100B2C00BD4680BD80B584B000AF7860082200213E
:100B3C007868FFF748FF3F2201217868FFF743FFF1
:100B4C00032202217868FFF73EFF03220321786815
:100B5C00FFF739FF032204217868FFF734FF0222E4
:100B6C0005217868FFF72FFF0E2206217868FFF722
:100B7C002AFF0E2207217868FFF725FF00220821A3
:100B8C007868FFF720FF002209217868FFF71BFF28
:100B9C00E7233B72E7237B72E723BB72E723FB72ED
:100BAC00E7233B7307F1080205230A217868FFF756
:100BBC0033FFC2233B72C2237B72C223BB72C2239C
:100BCC00FB72C2233B7307F1080205230B217868E3
:100BDC00FFF722FFC3220C217868FFF7F4FEC42232
:100BEC000D217868FFF7EFFEC5220E217868FFF71C
:100BFC00EAFEC6220F217868FFF7E5FEE7233B7279
:100C0C00E7237B72E723BB72E723FB72E7233B737B
:100C1C0007F10802052310217868FFF7FDFE00227A
:100C2C0011217868FFF7CFFE002212217868FFF7B8
:100C3C00CAFE002213217868FFF7C5FE002214219A
:100C4C007868FFF7C0FE002215217868FFF7BBFE1D
:100C5C00002216217868FFF7B6FE1122172178685A
:100C6C00FFF7B1FE00221C217868FFF7ACFE0022D2
:100C7C001D217868FFF7A7FE00BF1037BD4680BD69
:100C8C0080B582B000AF78607B689B7F7D2B06D8E7
:100C9C007B689B7F1A4605217868FFF794FE00BF9E
:100CAC000837BD4680BD80B584B000AF78600023A6
:100CBC00FB737B68DB7F002B04D1FB7B43F00803C9
:100CCC00FB7307E07B68DB7F022B03D1FB7B43F0DC
:100CDC002003FB737B6893F82230032B04D1FB7B3E
:100CEC0043F00603FB7312E07B6893F82230022B6F
:100CFC0004D1FB7B43F00403FB7308E07B6893F89F
:100D0C002230012B03D1FB7B43F00203FB73FB7BF3
:100D1C001A4606217868FFF756FE00BF1037BD460D
:100D2C0080BD80B582B000AF7860702207217868F2
:100D3C00FFF749FE00BF0837BD4680BD80B485B0C3
:100D4C0000AF154B9B69144A43F001039361124B9E
:100D5C009B6903F00103BB60BB680F4BDB690E4A58
:100D6C0043F08053D3610C4BDB6903F080537B6001
:100D7C007B680A4B5B68FB60FB6823F0E063FB60FD
:100D8C00FB6843F00073FB60044AFB68536000BFD0
:100D9C001437BD4680BC7047001002400000014073
:100DAC0080B588B000AF786007F1100300221A609C
:100DBC005A609A60DA607B681B68184A934229D1A2
:100DCC00174B9B69164A43F400739361144B9B6950
:100DDC0003F40073FB60FB68114B9B69104A43F0F2
:100DEC00040393610E4B9B6903F00403BB60BB6867
:100DFC0003233B6103237B6107F110031946094868
:100E0C0001F080F800220021122001F044F8122099
:100E1C0001F05DF800BF2037BD4680BD00240140C5
:100E2C00001002400008014080B588B000AF786027
:100E3C0007F1100300221A605A609A60DA607B682E
:100E4C001B681B4A93422FD11A4B9B69194A43F4D6
:100E5C0080539361174B9B6903F48053FB60FB68D1
:100E6C00144B9B69134A43F004039361114B9B6928
:100E7C0003F00403BB60BB68A0233B6102237B61CE
:100E8C000323FB6107F1100319460B4801F03AF8F4
:100E9C0040233B6100237B610023BB6107F11003FE
:100EAC001946054801F02EF800BF2037BD4680BD1D
:100EBC0000300140001002400008014080B400AF37
:100ECC00FEE780B400AFFEE780B400AFFEE780B46D
:100EDC0000AFFEE780B400AFFEE780B400AF00BF08
:100EEC00BD4680BC704780B400AF00BFBD4680BC1F
:100EFC00704780B400AF00BFBD4680BC704780B562
:100F0C0000AF00F09BF800BF80BD000080B500AFC3
:100F1C00024800F081FC00BF80BD00BF280000200B
:100F2C0080B500AF4FF4007001F0B8F900BF80BD80
:100F3C0080B500AF4FF4806001F0B0F94FF4006061
:100F4C0001F0ACF94FF4805001F0A8F94FF40040D7
:100F5C0001F0A4F900BF80BD80B400AF00BFBD4656
:100F6C0080BC70470C480D490D4A002302E0D45850
:100F7C00C4500433C4188C42F9D30A4A0A4C0023D7
:100F8C0001E013600432A242FBD3FFF7E5FF02F04D
:100F9C007FF9FFF773FA7047000000200C00002067
:100FAC004C3300080C000020E4000020FEE7000099
:100FBC0080B500AF084B1B68074A43F01003136061
:100FCC00032000F05DFF0F2000F008F8FFF7B6FEDD
:100FDC000023184680BD00BF0020024080B582B0BF
:100FEC0000AF7860124B1A68124B1B7819464FF4FD
:100FFC007A73B3FBF1F3B2FBF3F3184600F075FF11
:10100C000346002B01D001230EE07B680F2B0AD87E
:10101C00002279684FF0FF3000F03DFF064A7B68F4
:10102C001360002300E0012318460837BD4680BD3D
:10103C0000000020080000200400002080B400AF55
:10104C00054B1B781A46054B1B681344034A136067
:10105C0000BFBD4680BC704708000020E0000020A7
:10106C0080B400AF024B1B681846BD4680BC70476D
:10107C00E000002080B584B000AF7860FFF7F0FF8F
:10108C00B8607B68FB60FB68B3F1FF3F05D00A4B8F
:10109C001B781A46FB681344FB6000BFFFF7E0FFA8
:1010AC000246BB68D31AFA689A42F7D800BF00BF51
:1010BC001037BD4680BD00BF0800002080B586B04B
:1010CC0000AF78600023FB7500233B610023BB60FD
:1010DC000023FB607B68002B01D10123BEE07B6801
:1010EC009B68002B7B689B6A002B09D17B680022D4
:1010FC00DA627B68002283F824207868FFF750FEC0
:10110C00786800F0A7FD0346FB757B689B6A03F0CB
:10111C001003002B40F09980FB7D002B40F0958054
:10112C007B689B6A23F4885323F0020343F002028A
:10113C007B689A627B685A687B68DB691A437B68B8
:10114C001B7B5B001343BA681343BB607B689B68D3
:10115C00B3F5807F03D07B689B68012B02D14FF4E1
:10116C00807300E000233A6913433B617B681B7D6D
:10117C00012B19D17B681B7B002B09D17B689B69E8
:10118C00013B5A033B69134343F400633B610BE09F
:10119C007B689B6A43F020027B689A627B68DB6AFF
:1011AC0043F001027B68DA627B681B685B6823F49E
:1011BC0069417B681B683A690A435A607B681B6803
:1011CC009A68284B13407A681268B9680B4393608D
:1011DC007B689B68B3F5807F03D07B689B68012B91
:1011EC0004D17B681B69013B1B05FB607B681B689A
:1011FC00DB6A23F470017B681B68FA680A43DA62C5
:10120C007B681B689A68184B1340BA689A420BD1DA
:10121C007B680022DA627B689B6A23F0030343F04D
:10122C0001027B689A6218E07B689B6A23F01203C8
:10123C0043F010027B689A627B68DB6A43F0010220
:10124C007B68DA620123FB7507E07B689B6A43F0DD
:10125C0010027B689A620123FB75FB7D18461837D8
:10126C00BD4680BDFDF7E1FFFE0E1FFF80B584B0CB
:10127C0000AF78600023FB737B6893F82430012B5C
:10128C0001D1022398E07B68012283F8242078683E
:10129C0000F086FC0346FB73FB7B002B40F0878041
:1012AC007B689B6A23F4407323F0010343F4807240
:1012BC007B689A627B681B68414A934205D1414B1B
:1012CC005B6803F47023002B15D17B689B6A23F4B5
:1012DC0080127B689A627B681B685B6803F480638E
:1012EC00002B26D07B689B6A23F4405343F4805236
:1012FC007B689A621DE07B689B6A43F480127B6872
:10130C009A627B681B682F4A934204D07B681B68E7
:10131C002B4A93420DD12B4B5B6803F48063002B5B
:10132C0007D07B689B6A23F4405343F480527B685C
:10133C009A627B689B6A03F48053002B06D07B680F
:10134C00DB6A23F006027B68DA6202E07B6800222B
:10135C00DA627B68002283F824207B681B686FF0BC
:10136C0002021A607B681B689B6803F46023B3F568
:10137C00602F13D17B681B68114A934205D1114B26
:10138C005B6803F47023002B08D17B681B689A6898
:10139C007B681B6842F4A0029A600CE07B681B68B7
:1013AC009A687B681B6842F480129A6003E07B6841
:1013BC00002283F82420FB7B18461037BD4680BDE5
:1013CC00002801400024014080B584B000AF786053
:1013DC000023FB737B6893F82430012B01D102238B
:1013EC001AE07B68012283F82420786800F032FC34
:1013FC000346FB73FB7B002B09D17B689B6A23F4B0
:10140C00885323F0010343F001027B689A627B68E6
:10141C00002283F82420FB7B18461037BD4680BD84
:10142C0090B587B000AF7860396000237B610023F2
:10143C00FB6000233B61FFF713FE78617B681B6840
:10144C009B6803F48073002B0BD07B689B6A43F082
:10145C0020027B689A627B68002283F82420012397
:10146C00D3E07B681B685B6803F48073002B31D17D
:10147C007B681B68DB6A03F47003002B2AD121E024
:10148C003B68B3F1FF3F1DD03B68002B07D0FFF743
:10149C00E7FD02467B69D31A3A689A4212D27B68FE
:1014AC001B681B6803F00203002B0BD17B689B6A43
:1014BC0043F004027B689A627B68002283F8242044
:1014CC000323A2E07B681B681B6803F00203002B5C
:1014DC00D6D070E04F4B1C68022001F0B3FB0346E2
:1014EC00B4FBF3F27B681B6819694B4B0B40002B68
:1014FC0018D17B681B68D968484B0B40002B11D165
:10150C007B681B681969464B0B40002B08D17B6824
:10151C001B68D968434B0B40002B01D1142320E0EE
:10152C0029231EE07B681B6819693D4B0B40002B7F
:10153C0006D17B681B68D9683A4B0B40002B0DD049
:10154C007B681B681969384B0B40002B08D17B68F2
:10155C001B68D968344B0B40002B01D1542300E09D
:10156C00FC2302FB03F33B6121E03B68B3F1FF3F3B
:10157C001AD03B68002B07D0FFF772FD02467B693F
:10158C00D31A3A689A420FD2FB683A699A420BD93D
:10159C007B689B6A43F004027B689A627B6800223A
:1015AC0083F82420032330E0FB680133FB60FB68E5
:1015BC003A699A42D9D87B681B686FF012021A609C
:1015CC007B689B6A43F400727B689A627B681B6839
:1015DC009B6803F46023B3F5602F15D17B681B7BEC
:1015EC00002B11D17B689B6A23F480727B689A6212
:1015FC007B689B6A03F48053002B05D17B689B6A44
:10160C0043F001027B689A62002318461C37BD46E2
:10161C0090BD00BF00000020244992242449920070
:10162C0092244912922449004992240080B584B036
:10163C0000AF78600023FB737B6893F82430012B98
:10164C0001D10223A0E07B68012283F82420786872
:10165C0000F0A6FA0346FB73FB7B002B40F08F8057
:10166C007B689B6A23F4706323F0010343F480725C
:10167C007B689A627B681B68454A934205D1454B4F
:10168C005B6803F47023002B15D17B689B6A23F4F1
:10169C0080127B689A627B681B685B6803F48063CA
:1016AC00002B26D07B689B6A23F4405343F4805272
:1016BC007B689A621DE07B689B6A43F480127B68AE
:1016CC009A627B681B68334A934204D07B681B6820
:1016DC002F4A93420DD12F4B5B6803F48063002B90
:1016EC0007D07B689B6A23F4405343F480527B6899
:1016FC009A627B689B6A03F48053002B06D07B684C
:10170C00DB6A23F006027B68DA6202E07B68002267
:10171C00DA627B68002283F824207B681B686FF0F8
:10172C0002021A607B681B685A687B681B6842F06F
:10173C0020025A607B681B689B6803F46023B3F536
:10174C00602F13D17B681B68114A934205D1114B52
:10175C005B6803F47023002B08D17B681B689A68C4
:10176C007B681B6842F4A0029A600CE07B681B68E3
:10177C009A687B681B6842F480129A6003E07B686D
:10178C00002283F82420FB7B18461037BD4680BD11
:10179C00002801400024014080B584B000AF78607F
:1017AC000023FB737B6893F82430012B01D10223B7
:1017BC0022E07B68012283F82420786800F04AFA42
:1017CC000346FB73FB7B002B11D17B681B685A68AB
:1017DC007B681B6822F020025A607B689B6A23F4AA
:1017EC00885323F0010343F001027B689A627B6803
:1017FC00002283F82420FB7B18461037BD4680BDA1
:10180C0080B483B000AF78607B681B68DB6C1846D3
:10181C000C37BD4680BC704780B582B000AF786095
:10182C007B681B685B6803F02003202B40D17B682E
:10183C001B681B6803F00203022B39D17B689B6A7F
:10184C0003F01003002B05D17B689B6A43F40072F4
:10185C007B689A627B681B689B6803F46023B3F512
:10186C00602F1DD17B681B7B002B19D17B681B68FB
:10187C005A687B681B6822F020025A607B689B6A5E
:10188C0023F480727B689A627B689B6A03F48053B2
:10189C00002B05D17B689B6A43F001027B689A623E
:1018AC007868FEF723FD7B681B686FF012021A60E4
:1018BC007B681B685B6803F08003802B4FD17B68CF
:1018CC001B681B6803F00403042B48D17B689B6ADC
:1018DC0003F01003002B05D17B689B6A43F4005284
:1018EC007B689A627B681B689B6803F4E043B3F5E2
:1018FC00E04F12D07B681B685B6803F48063002B9D
:10190C0025D17B681B689B6803F46023B3F5602FBB
:10191C001DD17B681B7B002B19D17B681B685A6817
:10192C007B681B6822F080025A607B689B6A23F4F8
:10193C0080527B689A627B689B6A03F48073002BED
:10194C0005D17B689B6A43F001027B689A627868D8
:10195C0000F0C1F97B681B686FF00C021A607B68A1
:10196C001B685B6803F04003402B14D17B681B6839
:10197C001B6803F00103012B0DD17B689B6A43F4B8
:10198C0080327B689A62786800F009F87B681B6883
:10199C006FF001021A6000BF0837BD4680BD80B4ED
:1019AC0083B000AF786000BF0C37BD4680BC704779
:1019BC0080B485B000AF786039600023FB730023DE
:1019CC00BB607B6893F82430012B01D10223DCE04F
:1019DC007B68012283F824203B685B68062B1CD8AB
:1019EC007B681B68596B3B685A6813469B00134411
:1019FC00053B1F2202FA03F3DB4319403B681868CE
:101A0C003B685A6813469B001344053B00FA03F2EB
:101A1C007B681B680A435A633CE03B685B680C2B91
:101A2C001CD87B681B68196B3B685A6813469B0073
:101A3C001344233B1F2202FA03F3DB4319403B6898
:101A4C0018683B685A6813469B001344233B00FA02
:101A5C0003F27B681B680A431A631BE07B681B68F4
:101A6C00D96A3B685A6813469B001344413B1F22BA
:101A7C0002FA03F3DB4319403B6818683B685A6869
:101A8C0013469B001344413B00FA03F27B681B682E
:101A9C000A43DA623B681B68092B1CD97B681B68FC
:101AAC00D9683B681A6813465B0013441E3B072237
:101ABC0002FA03F3DB4319403B6898683B681A68E9
:101ACC0013465B0013441E3B00FA03F27B681B6851
:101ADC000A43DA6019E07B681B6819693B681A686D
:101AEC0013465B001344072202FA03F3DB4319404D
:101AFC003B6898683B681A6813465B00134400FA0D
:101B0C0003F27B681B680A431A613B681B68102B45
:101B1C0003D03B681B68112B32D17B681B681D4AB4
:101B2C00934225D17B681B689B6803F40003002B50
:101B3C0026D17B681B689A687B681B6842F400029C
:101B4C009A603B681B68102B1AD1134B1B68134A05
:101B5C00A2FB03239A0C13469B0013445B00BB604F
:101B6C0002E0BB68013BBB60BB68002BF9D107E00E
:101B7C007B689B6A43F020027B689A620123FB73AB
:101B8C007B68002283F82420FB7B18461437BD4663
:101B9C0080BC7047002401400000002083DE1B4302
:101BAC0080B584B000AF78600023FB600023BB607D
:101BBC007B681B689B6803F00103012B40D07B689A
:101BCC001B689A687B681B6842F001029A601F4B85
:101BDC001B681F4AA2FB03239B0CBB6002E0BB6883
:101BEC00013BBB60BB68002BF9D1FFF739FAF860F9
:101BFC001FE0FFF735FA0246FB68D31A022B18D9FF
:101C0C007B681B689B6803F00103012B11D07B6878
:101C1C009B6A43F010027B689A627B68DB6A43F034
:101C2C0001027B68DA627B68002283F8242001239E
:101C3C0007E07B681B689B6803F00103012BD8D17C
:101C4C00002318461037BD4680BD00BF00000020A1
:101C5C0083DE1B4380B584B000AF78600023FB604B
:101C6C007B681B689B6803F00103012B2ED17B68FA
:101C7C001B689A687B681B6822F001029A60FFF768
:101C8C00EFF9F8601BE0FFF7EBF90246FB68D31A9B
:101C9C00022B14D97B681B689B6803F00103012B92
:101CAC000DD17B689B6A43F010027B689A627B685B
:101CBC00DB6A43F001027B68DA62012307E07B6890
:101CCC001B689B6803F00103012BDCD00023184632
:101CDC001037BD4680BD80B483B000AF786000BFC4
:101CEC000C37BD4680BC704780B485B000AF7860BF
:101CFC007B6803F00703FB600C4BDB68BB60BA68C6
:101D0C004FF6FF031340BB60FB681A02BB6813431A
:101D1C0043F0BF6343F40033BB60044ABB68D36039
:101D2C0000BF1437BD4680BC704700BF00ED00E01B
:101D3C0080B400AF044BDB681B0A03F007031846A2
:101D4C00BD4680BC704700BF00ED00E080B483B09E
:101D5C0000AF0346FB7197F90730002B0BDBFB79C7
:101D6C0003F01F02064997F907305B09012000FABE
:101D7C0002F241F8232000BF0C37BD4680BC7047EF
:101D8C0000E100E080B483B000AF03463960FB7122
:101D9C0097F90730002B0ADB3B68DAB20C4997F94C
:101DAC0007301201D2B20B4483F800230AE03B68DF
:101DBC00DAB20849FB7903F00F03043B1201D2B2EB
:101DCC000B441A7600BF0C37BD4680BC704700BF71
:101DDC0000E100E000ED00E080B489B000AFF860F5
:101DEC00B9607A60FB6803F00703FB61FB69C3F120
:101DFC000703042B28BF0423BB61FB690433062BA8
:101E0C0002D9FB69033B00E000237B614FF0FF32FA
:101E1C00BB6902FA03F3DA43BB681A407B699A4048
:101E2C004FF0FF317B6901FA03F3D9437B680B4018
:101E3C00134318462437BD4680BC704780B582B02A
:101E4C0000AF78607B68013BB3F1807F01D3012345
:101E5C000FE00A4A7B68013B53600F214FF0FF30C3
:101E6C00FFF790FF054B00229A60044B07221A6083
:101E7C00002318460837BD4680BD00BF10E000E0C7
:101E8C0080B582B000AF78607868FFF72DFF00BF97
:101E9C000837BD4680BD80B586B000AF0346B9603B
:101EAC007A60FB7300237B61FFF742FF78617A68ED
:101EBC00B9687869FFF790FF024697F90F30114621
:101ECC001846FFF75FFF00BF1837BD4680BD80B5D1
:101EDC0082B000AF0346FB7197F907301846FFF745
:101EEC0035FF00BF0837BD4680BD80B582B000AF5E
:101EFC0078607868FFF7A2FF034618460837BD469E
:101F0C0080BD000080B48BB000AF786039600023D6
:101F1C007B6200233B6269E101227B6A02FA03F3D4
:101F2C00FB613B681B68FA691340BB61BA69FB69CA
:101F3C009A4240F058813B685B689A4A93425ED063
:101F4C00984A934275D8984A934258D0964A9342ED
:101F5C006FD8964A934252D0944A934269D8944A85
:101F6C0093424CD0924A934263D8924A934246D0C1
:101F7C00904A93425DD8122B2AD8122B59D801A221
:101F8C0052F823F00B200008E51F0008F71F00088B
:101F9C00392000083F2000083F2000083F2000089F
:101FAC003F2000083F2000083F2000083F20000889
:101FBC003F2000083F2000083F2000083F20000879
:101FCC003F2000083F200008ED1F000801200008FA
:101FDC00794A934213D02CE03B68DB683B6229E0E2
:101FEC003B68DB6804333B6224E03B68DB68083306
:101FFC003B621FE03B68DB680C333B621AE03B68DA
:10200C009B68002B02D104233B6213E03B689B6866
:10201C00012B05D108233B627B68FA691A6109E040
:10202C0008233B627B68FA695A6103E000233B6238
:10203C0000E000BFBB69FF2B01D87B6801E07B6827
:10204C0004337B61BB69FF2B02D87B6A9B0002E0E7
:10205C007B6A083B9B003B617B691A680F213B69DB
:10206C0001FA03F3DB431A40396A3B6901FA03F3C3
:10207C001A437B691A603B685B6803F08053002B42
:10208C0000F0B1804D4B9B694C4A43F001039361C6
:10209C004A4B9B6903F00103BB60BB68484A7B6AEF
:1020AC009B08023352F82330FB607B6A03F0030376
:1020BC009B000F2202FA03F3DB43FA681340FB6028
:1020CC007B68404A934213D07B683F4A93420DD0C1
:1020DC007B683E4A934207D07B683D4A934201D1CC
:1020EC00032306E0042304E0022302E0012300E0C2
:1020FC0000237A6A02F0030292009340FA681343B9
:10210C00FB602F497B6A9B080233FA6841F8232055
:10211C003B685B6803F48033002B06D02D4B1A68A8
:10212C002C49BB6913430B6006E02A4B1A68BB6948
:10213C00DB43284913400B603B685B6803F40033B6
:10214C00002B06D0234B5A682249BB6913434B60C2
:10215C0006E0204B5A68BB69DB431E4913404B60B9
:10216C003B685B6803F48013002B06D0194B9A680C
:10217C001849BB6913438B6006E0164B9A68BB6920
:10218C00DB43144913408B603B685B6803F400131A
:10219C00002B21D00F4BDA680E49BB691343CB607F
:1021AC0021E000BF000032100000311000002210AE
:1021BC00000021100000121000001110001002404D
:1021CC000000014000080140000C014000100140DB
:1021DC0000140140000401400B4BDA68BB69DB437F
:1021EC0009491340CB607B6A01337B623B681A68F8
:1021FC007B6A22FA03F3002B7FF48EAE00BF00BF84
:10220C002C37BD4680BC70470004014080B485B0BB
:10221C0000AF78600B467B807B689A687B881340A4
:10222C00002B02D00123FB7301E00023FB73FB7B2B
:10223C0018461437BD4680BC704780B483B000AFDD
:10224C0078600B467B8013467B707B78002B03D029
:10225C007A887B681A6103E07B881A047B681A61B0
:10226C0000BF0C37BD4680BC704780B485B000AF52
:10227C0078600B467B807B68DB68FB607A88FB6848
:10228C0013401A04FB68D9437B880B401A437B68C4
:10229C001A6100BF1437BD4680BC704780B582B050
:1022AC0000AF0346FB80084B5A69FB881340002B98
:1022BC0006D0054AFB885361FB881846FDF77CFF66
:1022CC0000BF0837BD4680BD0004014080B586B014
:1022DC0000AF78607B68002B01D1012372E27B6830
:1022EC001B6803F00103002B00F08780924B5B68A6
:1022FC0003F00C03042B0CD08F4B5B6803F00C0326
:10230C00082B12D18C4B5B6803F48033B3F5803F00
:10231C000BD1894B1B6803F40033002B6CD07B680A
:10232C005B68002B68D101234CE27B685B68B3F5DA
:10233C00803F06D1804B1B687F4A43F48033136087
:10234C002EE07B685B68002B0CD17B4B1B687A4AB8
:10235C0023F480331360784B1B68774A23F4802373
:10236C0013601DE07B685B68B3F5A02F0CD1724B3A
:10237C001B68714A43F4802313606F4B1B686E4AD1
:10238C0043F4803313600BE06B4B1B686A4A23F4F5
:10239C0080331360684B1B68674A23F480231360F7
:1023AC007B685B68002B13D0FEF75AFE386108E09F
:1023BC00FEF756FE02463B69D31A642B01D9032360
:1023CC0000E25D4B1B6803F40033002BF0D014E0EB
:1023DC00FEF746FE386108E0FEF742FE02463B6916
:1023EC00D31A642B01D90323ECE1534B1B6803F480
:1023FC000033002BF0D100E000BF7B681B6803F0BA
:10240C000203002B63D04C4B5B6803F00C03002BD6
:10241C000BD0494B5B6803F00C03082B1CD1464BCB
:10242C005B6803F48033002B16D1434B1B6803F01D
:10243C000203002B05D07B681B69012B01D0012303
:10244C00C0E13D4B1B6823F0F8027B685B69DB0045
:10245C00394913430B603AE07B681B69002B20D091
:10246C00364B01221A60FEF7FBFD386108E0FEF7DF
:10247C00F7FD02463B69D31A022B01D90323A1E1D4
:10248C002D4B1B6803F00203002BF0D02A4B1B686A
:10249C0023F0F8027B685B69DB00274913430B6070
:1024AC0015E0264B00221A60FEF7DAFD386108E0D1
:1024BC00FEF7D6FD02463B69D31A022B01D9032342
:1024CC0080E11D4B1B6803F00203002BF0D17B68ED
:1024DC001B6803F00803002B3AD07B689B69002B28
:1024EC0019D0174B01221A60FEF7BAFD386108E0CB
:1024FC00FEF7B6FD02463B69D31A022B01D9032322
:10250C0060E10D4B5B6A03F00203002BF0D001205D
:10251C0000F0C4FA1CE00A4B00221A60FEF7A0FD82
:10252C0038610FE0FEF79CFD02463B69D31A022B83
:10253C0008D9032346E100BF0010024000004242CC
:10254C0080044242924B5B6A03F00203002BE9D1F8
:10255C007B681B6803F00403002B00F0A6800023AB
:10256C00FB758B4BDB6903F08053002B0DD1884B33
:10257C00DB69874A43F08053D361854BDB6903F0F9
:10258C008053BB60BB680123FB75824B1B6803F453
:10259C008073002B18D17F4B1B687E4A43F48073E9
:1025AC001360FEF75DFD386108E0FEF759FD024649
:1025BC003B69D31A642B01D9032303E1754B1B68C8
:1025CC0003F48073002BF0D07B68DB68012B06D101
:1025DC006F4B1B6A6E4A43F0010313622DE07B685C
:1025EC00DB68002B0CD16A4B1B6A694A23F0010390
:1025FC001362674B1B6A664A23F0040313621CE0E8
:10260C007B68DB68052B0CD1614B1B6A604A43F07D
:10261C00040313625E4B1B6A5D4A43F001031362B1
:10262C000BE05B4B1B6A5A4A23F001031362584BB5
:10263C001B6A574A23F0040313627B68DB68002B88
:10264C0015D0FEF70DFD38610AE0FEF709FD0246D4
:10265C003B69D31A41F28832934201D90323B1E08A
:10266C004B4B1B6A03F00203002BEED014E0FEF779
:10267C00F7FC38610AE0FEF7F3FC02463B69D31A1B
:10268C0041F28832934201D903239BE0404B1B6AF1
:10269C0003F00203002BEED1FB7D012B05D13C4B4B
:1026AC00DB693B4A23F08053D3617B68DB69002BE9
:1026BC0000F08780364B5B6803F00C03082B61D06D
:1026CC007B68DB69022B46D1334B00221A60FEF784
:1026DC00C7FC386108E0FEF7C3FC02463B69D31A1D
:1026EC00022B01D903236DE0294B1B6803F0007307
:1026FC00002BF0D17B681B6AB3F5803F08D1244BCB
:10270C005B6823F400327B689B68214913434B6060
:10271C001F4B5B6823F474127B68196A7B685B6AD5
:10272C000B431B4913434B601B4B01221A60FEF7F2
:10273C0097FC386108E0FEF793FC02463B69D31A1C
:10274C00022B01D903233DE0114B1B6803F00073EE
:10275C00002BF0D035E0104B00221A60FEF780FC05
:10276C00386108E0FEF77CFC02463B69D31A022B69
:10277C0001D9032326E0064B1B6803F00073002BE2
:10278C00F0D11EE07B68DB69012B07D1012319E036
:10279C000010024000700040600042420B4B5B682E
:1027AC00FB60FB6803F480327B681B6A9A4206D19B
:1027BC00FB6803F470127B685B6A9A4201D00123B8
:1027CC0000E0002318461837BD4680BD00100240BB
:1027DC0080B584B000AF786039607B68002B01D184
:1027EC000123D0E06A4B1B6803F007033A689A4256
:1027FC0010D9674B1B6823F0070265493B681343EC
:10280C000B60634B1B6803F007033A689A4201D0D4
:10281C000123B8E07B681B6803F00203002B20D077
:10282C007B681B6803F00403002B05D0594B5B68D5
:10283C00584A43F4E06353607B681B6803F0080359
:10284C00002B05D0534B5B68524A43F460535360E2
:10285C00504B5B6823F0F0027B689B684D49134337
:10286C004B607B681B6803F00103002B40D07B6836
:10287C005B68012B07D1474B1B6803F40033002B1B
:10288C0015D101237FE07B685B68022B07D1414B9C
:10289C001B6803F00073002B09D1012373E03D4B3F
:1028AC001B6803F00203002B01D101236BE0394BB1
:1028BC005B6823F003027B685B68364913434B600B
:1028CC00FEF7CEFBF8600AE0FEF7CAFB0246FB6897
:1028DC00D31A41F28832934201D9032353E02D4B92
:1028EC005B6803F00C027B685B689B009A42EBD13F
:1028FC00274B1B6803F007033A689A4210D2244B0B
:10290C001B6823F0070222493B6813430B60204BE2
:10291C001B6803F007033A689A4201D0012332E0A6
:10292C007B681B6803F00403002B08D0194B5B6811
:10293C0023F4E0627B68DB68164913434B607B68C9
:10294C001B6803F00803002B09D0124B5B6823F4BF
:10295C0060527B681B69DB000E4913434B6000F02F
:10296C0021F802460B4B5B681B0903F00F030A4965
:10297C00CB5C22FA03F3094A1360094B1B68184617
:10298C00FEF72CFB002318461037BD4680BD00BF58
:10299C0000200240001002402C33000800000020F0
:1029AC000400002090B48AB000AF294B3C1D0FCB23
:1029BC0084E80F0040F201233B800023FB610023DD
:1029CC00BB6100237B6200237B6100233B62214BB4
:1029DC005B68FB61FB6903F00C03042B02D0082B32
:1029EC0003D02BE01C4B3B622BE0FB699B0C03F0F0
:1029FC000F0328333B4413F8243C7B61FB6903F43D
:102A0C008033002B12D0134B5B685B0C03F001037B
:102A1C0028333B4413F8283CBB617B690E4A03FB0B
:102A2C0002F2BB69B2FBF3F37B6204E07B690B4AF5
:102A3C0002FB03F37B627B6A3B6202E0064B3B6268
:102A4C0000BF3B6A18462837BD4690BC704700BF94
:102A5C000C3300080010024000127A0000093D00FF
:102A6C0080B400AF024B1B681846BD4680BC704753
:102A7C000000002080B500AFFFF7F2FF0246054BC7
:102A8C005B68DB0A03F007030349CB5C22FA03F310
:102A9C00184680BD001002403C33000880B485B05D
:102AAC0000AF78600A4B1B680A4AA2FB03235B0A3F
:102ABC007A6802FB03F3FB6000BFFB685A1EFA60E6
:102ACC00002BF9D100BF00BF1437BD4680BC704746
:102ADC0000000020D34D621080B586B000AF786046
:102AEC0000233B610023FB607B681B6803F0010340
:102AFC00002B7DD00023FB754F4BDB6903F080531B
:102B0C00002B0DD14C4BDB694B4A43F08053D36106
:102B1C00494BDB6903F08053BB60BB680123FB7539
:102B2C00464B1B6803F48073002B18D1434B1B6876
:102B3C00424A43F480731360FEF792FA386108E05E
:102B4C00FEF78EFA02463B69D31A642B01D9032394
:102B5C006DE03A4B1B6803F48073002BF0D0364BBE
:102B6C001B6A03F44073FB60FB68002B2ED07B6860
:102B7C005B6803F44073FA689A4227D02E4B1B6AA9
:102B8C0023F44073FB602E4B01221A602C4B002265
:102B9C001A60294AFB681362FB6803F00103002BDF
:102BAC0014D0FEF75DFA38610AE0FEF759FA0246D6
:102BBC003B69D31A41F28832934201D9032336E0A0
:102BCC001D4B1B6A03F00203002BEED01A4B1B6A41
:102BDC0023F440727B685B68174913430B62FB7DDF
:102BEC00012B05D1144BDB69134A23F08053D361BD
:102BFC007B681B6803F00203002B08D00E4B5B684C
:102C0C0023F440427B689B680B4913434B607B6801
:102C1C001B6803F01003002B08D0074B5B6823F4F0
:102C2C0080027B68DB68044913434B600023184621
:102C3C001837BD4680BD00BF001002400070004038
:102C4C004004424290B58DB000AF7860584B07F10C
:102C5C000C040FCB84E80F0040F201233B810023CE
:102C6C007B620023FB6200233B620023FB61002399
:102C7C00BB627B68102B0AD07B68102B00F28E8015
:102C8C007B68012B49D07B68022B79D086E0494BBD
:102C9C005B68FB61474B1B6803F08073002B7FD094
:102CAC00FB699B0C03F00F0330333B4413F8243CBB
:102CBC003B62FB6903F48033002B17D03D4B5B6800
:102CCC005B0C03F0010330333B4413F8283C7B626C
:102CDC00FB6903F48033002B0DD0374A7B6AB2FBBF
:102CEC00F3F23B6A02FB03F3FB6204E03B6A334AF8
:102CFC0002FB03F3FB622F4B5B6803F48003B3F519
:102D0C00800F02D1FB6ABB624AE0FB6A5B002C4A73
:102D1C00A2FB03235B08BB6242E0264B1B6AFB61F0
:102D2C00FB6903F44073B3F5807F08D1FB6903F0B2
:102D3C000203002B03D04FF40043BB621FE0FB697E
:102D4C0003F44073B3F5007F09D11A4B5B6A03F0AF
:102D5C000203002B03D049F64043BB620FE0FB6932
:102D6C0003F44073B3F5407F1CD1124B1B6803F482
:102D7C000033002B16D04FF22443BB6212E011E05B
:102D8C00FFF778FE02460B4B5B689B0B03F00303CB
:102D9C0001335B00B2FBF3F3BB6204E000BF02E063
:102DAC0000BF00E000BFBB6A18463437BD4690BD7B
:102DBC001C3300080010024000127A0000093D008C
:102DCC00ABAAAAAA80B582B000AF78607B68002B52
:102DDC0001D1012376E07B685B6A002B08D17B680C
:102DEC005B68B3F5827F09D07B680022DA6105E06D
:102DFC007B6800221A617B6800225A617B68002282
:102E0C009A627B6893F85130DBB2002B06D17B6859
:102E1C00002283F850207868FEF706F87B680222BF
:102E2C0083F851207B681B681A687B681B6822F04A
:102E3C0040021A607B685B6803F482727B689B6853
:102E4C0003F404431A437B68DB6803F400631A43FE
:102E5C007B681B6903F002031A437B685B6903F010
:102E6C0001031A437B689B6903F400731A437B6864
:102E7C00DB6903F038031A437B681B6A03F0800399
:102E8C0042EA03017B689B6A03F400527B681B686F
:102E9C000A431A607B689B691A0C7B681B6802F0FA
:102EAC0004025A607B681B68DA697B681B6822F431
:102EBC000062DA617B6800225A657B68012283F824
:102ECC005120002318460837BD4680BD80B588B018
:102EDC0000AFF860B9603B601346FB800023FB77C2
:102EEC00FB6893F85030012B01D1022326E1FB68DB
:102EFC00012283F85020FEF7B3F8B861FB88FB82FF
:102F0C00FB6893F85130DBB2012B02D00223FB7724
:102F1C000BE1BB68002B02D0FB88002B02D10123F4
:102F2C00FB7702E1FB68032283F85120FB68002247
:102F3C005A65FB68BA681A63FB68FA889A86FB685C
:102F4C00FA88DA86FB6800229A63FB6800229A876B
:102F5C00FB680022DA87FB6800225A64FB680022B7
:102F6C001A64FB689B68B3F5004F0FD1FB681B68B4
:102F7C001A68FB681B6822F040021A60FB681B6829
:102F8C001A68FB681B6842F480421A60FB681B6875
:102F9C001B6803F04003402B07D0FB681B681A68C2
:102FAC00FB681B6842F040021A60FB68DB68B3F5F3
:102FBC00006F4BD1FB685B68002B02D0FB8A012BA6
:102FCC003ED1FB681B6B1A88FB681B68DA60FB68D8
:102FDC001B6B9A1CFB681A63FB68DB8E9BB2013B74
:102FEC009AB2FB68DA862BE0FB681B689B6803F0DF
:102FFC000203022B12D1FB681B6B1A88FB681B683F
:10300C00DA60FB681B6B9A1CFB681A63FB68DB8E2F
:10301C009BB2013B9AB2FB68DA8611E0FEF720F80E
:10302C000246BB69D31A3A689A4203D83B68B3F19B
:10303C00FF3F02D13B68002B02D10323FB7774E0E6
:10304C00FB68DB8E9BB2002BCED14CE0FB685B683F
:10305C00002B02D0FB8A012B40D1FB681A6BFB685A
:10306C001B680C3312781A70FB681B6B5A1CFB68BC
:10307C001A63FB68DB8E9BB2013B9AB2FB68DA8663
:10308C002CE0FB681B689B6803F00203022B13D136
:10309C00FB681A6BFB681B680C3312781A70FB68A0
:1030AC001B6B5A1CFB681A63FB68DB8E9BB2013BE3
:1030BC009AB2FB68DA8611E0FDF7D2FF0246BB69D3
:1030CC00D31A3A689A4203D83B68B3F1FF3F02D156
:1030DC003B68002B02D10323FB7726E0FB68DB8ED9
:1030EC009BB2002BCDD1BA693968F86800F0B2F800
:1030FC000346002B02D0FB6820225A65FB689B68B4
:10310C00002B0AD100233B61FB681B68DB683B6129
:10311C00FB681B689B683B613B69FB685B6D002B24
:10312C0002D00123FB7700E000BFFB68012283F88B
:10313C005120FB68002283F85020FB7F1846203773
:10314C00BD4680BD80B588B000AFF860B9603B600B
:10315C001346FB71FDF784FF0246BB6A9B1A3A6863
:10316C001344FB61FDF77CFFB861394B1B685B01B5
:10317C001B0DFA6902FB03F37B6154E03B68B3F16E
:10318C00FF3F50D0FDF76CFF0246BB69D31AFA69BA
:10319C009A4202D9FB69002B3DD1FB681B685A6827
:1031AC00FB681B6822F0E0025A60FB685B68B3F5B1
:1031BC00827F11D1FB689B68B3F5004F04D0FB688C
:1031CC009B68B3F5806F07D1FB681B681A68FB68B6
:1031DC001B6822F040021A60FB689B6AB3F5005F23
:1031EC000FD1FB681B681A68FB681B6822F400523D
:1031FC001A60FB681B681A68FB681B6842F4005273
:10320C001A60FB68012283F85120FB68002283F8C6
:10321C005020032317E07B69002B01D10023FB61B5
:10322C007B69013B7B61FB681B689A68BB68134038
:10323C00BA689A420CBF01230023DBB21A46FB7911
:10324C009A429BD1002318462037BD4680BD00BF53
:10325C000000002080B586B002AFF860B9607A60DB
:10326C007B680093BB6800228021F868FFF76AFF37
:10327C000346002B07D0FB685B6D43F02002FB6814
:10328C005A65032300E0002318461037BD4680BD65
:10329C0070B500260C4D0D4C641BA410A64209D130
:1032AC0000F022F800260A4D0A4C641BA410A6421A
:1032BC0005D170BD55F8043B98470136EEE755F83B
:1032CC00043B98470136F2E74433000844330008C6
:1032DC00443300084833000803460244934200D1AB
:1032EC00704703F8011BF9E7F8B500BFF8BC08BC40
:1032FC009E467047F8B500BFF8BC08BC9E467047A8
:10330C0002030405060708090A0B0C0D0E0F10101A
:10331C0002030405060708090A0B0C0D0E0F10100A
:10332C000000000000000000010203040607080969
:08333C0000000000010203047F
:04334400310100084B
:043348000D0100086B
:0C334C000024F40010000000010000004C
:0400000508000F716F
:00000001FF
