:020000040800F2
:100000000050002051380008E9370008EF37000899
:10001000F5370008FB370008013800080000000031
:100020000000000000000000000000000738000889
:1000300013380008000000001F3800082B380008A3
:10004000993800089938000899380008993800084C
:10005000993800089938000899380008373800089E
:10006000993800089938000899380008993800082C
:10007000993800089938000899380008993800081C
:10008000993800089938000899380008993800080C
:1000900099380008993800089938000899380008FC
:1000A00099380008993800089938000899380008EC
:1000B00099380008993800089938000899380008DC
:1000C00099380008993800089938000899380008CC
:1000D00099380008993800089938000899380008BC
:1000E0009938000899380008993800080000000085
:1000F0000000000000000000000000000000000000
:0C01000000000000000000005FF808F1A3
:1001100010B5054C237833B9044B13B10448AFF341
:1001200000800123237010BD70010020000000003A
:100130009482000808B5034B1BB103490348AFF391
:10014000008008BD000000007401002094820008B7
:1001500081F0004102E000BF83F0004330B54FEA78
:1001600041044FEA430594EA050F08BF90EA020FE5
:100170001FBF54EA000C55EA020C7FEA645C7FEA78
:10018000655C00F0E2804FEA5454D4EB5555B8BF9B
:100190006D420CDD2C4480EA020281EA030382EA0C
:1001A000000083EA010180EA020281EA0303362D9E
:1001B00088BF30BD11F0004F4FEA01314FF4801C71
:1001C0004CEA113102D0404261EB410113F0004F83
:1001D0004FEA03334CEA133302D0524263EB43033A
:1001E00094EA050F00F0A780A4F10104D5F1200ED8
:1001F0000DDB02FA0EFC22FA05F2801841F1000133
:1002000003FA0EF2801843FA05F359410EE0A5F106
:1002100020050EF1200E012A03FA0EFC28BF4CF037
:10022000020C43FA05F3C01851EBE37101F00045ED
:1002300007D54FF0000EDCF1000C7EEB00006EEBFA
:100240000101B1F5801F1BD3B1F5001F0CD3490884
:100250005FEA30004FEA3C0C04F101044FEA4452DB
:1002600012F5800F80F09A80BCF1004F08BF5FEA62
:10027000500C50F1000041EB045141EA050130BD42
:100280005FEA4C0C404141EB0101013C28BFB1F554
:10029000801FE9D291F0000F04BF01460020B1FA9F
:1002A00081F308BF2033A3F10B03B3F120020CDA72
:1002B0000C3208DD02F1140CC2F10C0201FA0CF050
:1002C00021FA02F10CE002F11402D8BFC2F1200CB5
:1002D00001FA02F120FA0CFCDCBF41EA0C0190406B
:1002E000E41AA2BF01EB0451294330BD6FEA0404B4
:1002F0001F3C1CDA0C340EDC04F11404C4F120029F
:1003000020FA04F001FA02F340EA030021FA04F3B0
:1003100045EA030130BDC4F10C04C4F1200220FA07
:1003200002F001FA04F340EA0300294630BD21FA45
:1003300004F0294630BD94F0000F83F4801306BF0B
:1003400081F480110134013D4EE77FEA645C18BFFF
:100350007FEA655C29D094EA050F08BF90EA020F96
:1003600005D054EA000C04BF1946104630BD91EA8E
:10037000030F1EBF0021002030BD5FEA545C05D191
:100380004000494128BF41F0004130BD14F58004D0
:100390003CBF01F5801130BD01F0004545F0FE4144
:1003A00041F470014FF0000030BD7FEA645C1ABF79
:1003B000194610467FEA655C1CBF0B46024650EAB0
:1003C000013406BF52EA033591EA030F41F40021DC
:1003D00030BD00BF90F0000F04BF0021704730B562
:1003E0004FF4806404F132044FF000054FF0000137
:1003F00050E700BF90F0000F04BF0021704730B5F8
:100400004FF4806404F1320410F0004548BF4042CC
:100410004FF000013EE700BF42004FEAE2014FEA21
:1004200031014FEA02701FBF12F07F4393F07F4FFC
:1004300081F06051704732F07F4208BF704793F0FF
:100440007F4F04BF41F40021704730B54FF4607412
:1004500001F0004521F000411CE700BF50EA010215
:1004600008BF704730B54FF000050AE050EA0102BE
:1004700008BF704730B511F0004502D5404261EB2E
:1004800041014FF4806404F132045FEA915C3FF46F
:10049000D8AE4FF003025FEADC0C18BF03325FEA0C
:1004A000DC0C18BF033202EBDC02C2F1200300FABD
:1004B00003FC20FA02F001FA03FE40EA0E0021FAE2
:1004C00002F11444BDE600BF70B54FF0FF0C4CF4D0
:1004D000E06C1CEA11541DBF1CEA135594EA0C0F82
:1004E00095EA0C0F00F0DEF82C4481EA030621EABD
:1004F0004C5123EA4C5350EA013518BF52EA0335F8
:1005000041F4801143F4801338D0A0FB02CE4FF0A9
:100510000005E1FB02E506F00042E0FB03E54FF0D9
:100520000006E1FB03569CF0000F18BF4EF0010ED1
:10053000A4F1FF04B6F5007F64F5407404D25FEACD
:100540004E0E6D4146EB060642EAC62141EA555180
:100550004FEAC52040EA5E504FEACE2EB4F1FD0CC2
:1005600088BFBCF5E06F1ED8BEF1004F08BF5FEA40
:10057000500E50F1000041EB045170BD06F00046F2
:1005800046EA010140EA020081EA0301B4EB5C049F
:10059000C2BFD4EB0C0541EA045170BD41F4801197
:1005A0004FF0000E013C00F3AB8014F1360FDEBFBC
:1005B000002001F0004170BDC4F10004203C35DA98
:1005C0000C341BDC04F11404C4F1200500FA05F31B
:1005D00020FA04F001FA05F240EA020001F00042BC
:1005E00021F0004110EBD37021FA04F642EB060132
:1005F0005EEA430E08BF20EAD37070BDC4F10C045C
:10060000C4F1200500FA04F320FA05F001FA04F21F
:1006100040EA020001F0004110EBD37041F100010B
:100620005EEA430E08BF20EAD37070BDC4F1200516
:1006300000FA05F24EEA020E20FA04F301FA05F27E
:1006400043EA020321FA04F001F0004121FA04F226
:1006500020EA020000EBD3705EEA430E08BF20EAF6
:10066000D37070BD94F0000F0FD101F00046400030
:1006700041EB010111F4801F08BF013CF7D041EAB2
:10068000060195F0000F18BF704703F000465200B6
:1006900043EB030313F4801F08BF013DF7D043EA87
:1006A0000603704794EA0C0F0CEA135518BF95EA3D
:1006B0000C0F0CD050EA410618BF52EA4306D1D1C4
:1006C00081EA030101F000414FF0000070BD50EAE3
:1006D000410606BF1046194652EA430619D094EA6D
:1006E0000C0F02D150EA013613D195EA0C0F05D157
:1006F00052EA03361CBF104619460AD181EA0301AB
:1007000001F0004141F0FE4141F470014FF0000062
:1007100070BD41F0FE4141F4780170BD70B54FF0FD
:10072000FF0C4CF4E06C1CEA11541DBF1CEA13557D
:1007300094EA0C0F95EA0C0F00F0A7F8A4EB05045F
:1007400081EA030E52EA03354FEA013100F0888056
:100750004FEA03334FF0805545EA131343EA12631F
:100760004FEA022245EA111545EA10654FEA0026D4
:100770000EF000419D4208BF964244F1FD0404F58D
:10078000407402D25B084FEA3202B61A65EB0305E9
:100790005B084FEA32024FF480104FF4002CB6EBA6
:1007A000020E75EB030E22BFB61A754640EA0C0026
:1007B0005B084FEA3202B6EB020E75EB030E22BF66
:1007C000B61A754640EA5C005B084FEA3202B6EBA7
:1007D000020E75EB030E22BFB61A754640EA9C0066
:1007E0005B084FEA3202B6EB020E75EB030E22BF36
:1007F000B61A754640EADC0055EA060E18D04FEAF4
:10080000051545EA16754FEA06164FEAC30343EA93
:1008100052734FEAC2025FEA1C1CC0D111F4801F60
:100820000BD141EA00014FF000004FF0004CB6E759
:1008300011F4801F04BF01430020B4F1FD0C88BFF8
:10084000BCF5E06F3FF6AFAEB5EB030C04BFB6EB03
:10085000020C5FEA500C50F1000041EB045170BDF6
:100860000EF0004E4EEA113114EB5C04C2BFD4EB23
:100870000C0541EA045170BD41F480114FF0000EA7
:10088000013C90E645EA060E8DE60CEA135594EA23
:100890000C0F08BF95EA0C0F3FF43BAF94EA0C0F26
:1008A0000AD150EA01347FF434AF95EA0C0F7FF49B
:1008B00025AF104619462CE795EA0C0F06D152EAEF
:1008C00003353FF4FDAE1046194622E750EA4106D3
:1008D00018BF52EA43067FF4C5AE50EA41047FF4E4
:1008E0000DAF52EA43057FF4EBAE12E74FF0FF3C49
:1008F00006E000BF4FF0010C02E000BF4FF0010C1A
:100900004DF804CD4FEA410C7FEA6C5C4FEA430C92
:1009100018BF7FEA6C5C1BD001B050EA410C0CBFE1
:1009200052EA430C91EA030F02BF90EA020F002043
:10093000704710F1000F91EA030F58BF994208BFAA
:1009400090422CBFD8176FEAE37040F00100704767
:100950004FEA410C7FEA6C5C02D150EA013C07D1BE
:100960004FEA430C7FEA6C5CD6D152EA033CD3D009
:100970005DF8040B704700BF8446104662468C4603
:100980001946634600E000BF01B5FFF7B7FF002836
:1009900048BF10F1000F01BD4DF808EDFFF7F4FF5F
:1009A0000CBF012000205DF808FB00BF4DF808EDEA
:1009B000FFF7EAFF34BF012000205DF808FB00BF0D
:1009C0004DF808EDFFF7E0FF94BF012000205DF82F
:1009D00008FB00BF4DF808EDFFF7CEFF94BF0120E4
:1009E00000205DF808FB00BF4DF808EDFFF7C4FFDD
:1009F00034BF012000205DF808FB00BF4FEA410C26
:100A00007FEA6C5C02D150EA013C0AD14FEA430C08
:100A10007FEA6C5C02D152EA033C02D14FF0000045
:100A200070474FF0010070474FEA410212F5001283
:100A300015D211D56FF47873B3EB625212D94FEA25
:100A4000C12343F0004343EA505311F0004F23FA0F
:100A500002F018BF404270474FF00000704750EA64
:100A6000013005D111F0004008BF6FF00040704721
:100A70004FF00000704700BF4FEA4102B2F1E0437F
:100A800024BFB3F5001CDCF1FE5C0DD901F0004C75
:100A90004FEAC0024CEA5070B2F1004F40EB8300C5
:100AA00008BF20F00100704711F0804F21D113F1F1
:100AB0003872BCBF01F00040704741F480114FEA2A
:100AC0005252C2F11802C2F1200C10FA0CF320FAB3
:100AD00002F018BF40F001004FEAC1234FEAD323D0
:100AE00003FA0CFC40EA0C0023FA02F34FEA43033A
:100AF000CCE77FEA625307D150EA01331EBF4FF0C3
:100B0000FE4040F44000704701F0004040F0FE40DD
:100B100040F40000704700BF80F0004002E000BFDA
:100B200081F0004142001FBF5FEA410392EA030FD8
:100B30007FEA226C7FEA236C6AD04FEA1262D2EB22
:100B40001363C1BFD218414048404140B8BF5B4227
:100B5000192B88BF704710F0004F40F4000020F0C0
:100B60007F4018BF404211F0004F41F4000121F0D6
:100B70007F4118BF494292EA030F3FD0A2F1010220
:100B800041FA03FC10EB0C00C3F1200301FA03F15E
:100B900000F0004302D5494260EB4000B0F5000F81
:100BA00013D3B0F1807F06D340084FEA310102F140
:100BB0000102FE2A51D2B1F1004F40EBC25008BFF2
:100BC00020F0010040EA03007047490040EB0000BC
:100BD000013A28BFB0F5000FEDD2B0FA80FCACF1BD
:100BE000080CB2EB0C0200FA0CF0AABF00EBC250EA
:100BF00052421843BCBFD0401843704792F0000FD8
:100C000081F4000106BF80F400000132013BB5E72A
:100C10004FEA41037FEA226C18BF7FEA236C21D0A0
:100C200092EA030F04D092F0000F08BF0846704705
:100C300090EA010F1CBF0020704712F07F4F04D1D3
:100C4000400028BF40F00040704712F100723CBFE6
:100C500000F50000704700F0004343F0FE4040F410
:100C6000000070477FEA226216BF08467FEA2363CE
:100C70000146420206BF5FEA412390EA010F40F4B9
:100C8000800070474FF0000304E000BF10F0004305
:100C900048BF40425FEA000C08BF704743F09643EC
:100CA00001464FF000001CE050EA010208BF704707
:100CB0004FF000030AE000BF50EA010208BF70478E
:100CC00011F0004302D5404261EB41015FEA010CA3
:100CD00002BF84460146002043F0B64308BFA3F19B
:100CE0008053A3F50003BCFA8CF2083AA3EBC2537D
:100CF00010DB01FA02FC634400FA02FCC2F120029C
:100D0000BCF1004F20FA02F243EB020008BF20F0D2
:100D10000100704702F1200201FA02FCC2F1200238
:100D200050EA4C0021FA02F243EB020008BF20EA2D
:100D3000DC7070474FF0FF0C1CEAD0521EBF1CEA5B
:100D4000D15392EA0C0F93EA0C0F6FD01A4480EA49
:100D5000010C400218BF5FEA41211ED04FF0006332
:100D600043EA501043EA5111A0FB01310CF000405E
:100D7000B1F5000F3EBF490041EAD3715B0040EA84
:100D8000010062F17F02FD2A1DD8B3F1004F40EB54
:100D9000C25008BF20F00100704790F0000F0CF027
:100DA000004C08BF49024CEA502040EA51207F3AEB
:100DB000C2BFD2F1FF0340EAC250704740F40000C6
:100DC0004FF00003013A5DDC12F1190FDCBF00F0B7
:100DD00000407047C2F10002410021FA02F1C2F165
:100DE000200200FA02FC5FEA310040F1000053EA01
:100DF0004C0308BF20EADC70704792F0000F00F04F
:100E0000004C02BF400010F4000F013AF9D040EA54
:100E10000C0093F0000F01F0004C02BF490011F4E8
:100E2000000F013BF9D041EA0C018FE70CEAD153E6
:100E300092EA0C0F18BF93EA0C0F0AD030F0004C66
:100E400018BF31F0004CD8D180EA010000F000401A
:100E5000704790F0000F17BF90F0004F084691F0D8
:100E6000000F91F0004F14D092EA0C0F01D1420212
:100E70000FD193EA0C0F03D14B0218BF084608D1DB
:100E800080EA010000F0004040F0FE4040F4000025
:100E9000704740F0FE4040F4400070474FF0FF0CB8
:100EA0001CEAD0521EBF1CEAD15392EA0C0F93EAFF
:100EB0000C0F69D0A2EB030280EA010C49024FEA51
:100EC000402037D04FF0805343EA111143EA10130A
:100ED0000CF000408B4238BF5B0042F17D024FF4C2
:100EE000000C8B4224BF5B1A40EA0C00B3EB510F9D
:100EF00024BFA3EB510340EA5C00B3EB910F24BF86
:100F0000A3EB910340EA9C00B3EBD10F24BFA3EB0A
:100F1000D10340EADC001B0118BF5FEA1C1CE0D1D2
:100F2000FD2A3FF650AF8B4240EBC25008BF20F085
:100F3000010070470CF0004C4CEA50207F32C2BFD9
:100F4000D2F1FF0340EAC250704740F400004FF076
:100F50000003013A37E792F0000F00F0004C02BFA7
:100F6000400010F4000F013AF9D040EA0C0093F071
:100F7000000F01F0004C02BF490011F4000F013BCB
:100F8000F9D041EA0C0195E70CEAD15392EA0C0F33
:100F900008D142027FF47DAF93EA0C0F7FF470AF6B
:100FA000084676E793EA0C0F04D14B023FF44CAFAE
:100FB00008466EE730F0004C18BF31F0004CCAD143
:100FC00030F000427FF45CAF31F000437FF43CAF7F
:100FD0005FE700BF4FF0FF3C06E000BF4FF0010CA1
:100FE00002E000BF4FF0010C4DF804CD4FEA400283
:100FF0004FEA41037FEA226C18BF7FEA236C11D0CD
:1010000001B052EA530C18BF90EA010F58BFB2EB7F
:10101000030088BFC81738BF6FEAE17018BF40F0FF
:10102000010070477FEA226C02D15FEA402C05D1B3
:101030007FEA236CE4D15FEA412CE1D05DF8040B38
:10104000704700BF844608466146FFE70FB5FFF7CB
:10105000C9FF002848BF10F1000F0FBD4DF808ED83
:10106000FFF7F4FF0CBF012000205DF808FB00BF74
:101070004DF808EDFFF7EAFF34BF012000205DF8CE
:1010800008FB00BF4DF808EDFFF7E0FF94BF01201B
:1010900000205DF808FB00BF4DF808EDFFF7D2FF18
:1010A00094BF012000205DF808FB00BF4DF808ED5B
:1010B000FFF7C8FF34BF012000205DF808FB00BF28
:1010C0004FEA4002B2F1FE4F0FD34FF09E03B3EB55
:1010D00012620DD94FEA002343F0004310F0004F95
:1010E00023FA02F018BF404270474FF000007047EB
:1010F00012F1610F01D1420205D110F0004008BF8A
:101100006FF0004070474FF00000704742000ED271
:10111000B2F1FE4F0BD34FF09E03B3EB126209D432
:101120004FEA002343F0004323FA02F070474FF0E8
:101130000000704712F1610F01D1420202D14FF05D
:10114000FF3070474FF00000704700BF90B585B08A
:1011500000AFF860B9607A60FB68BA68DA60FB6873
:101160007A681A61B9687868FFF7DAFC03461A46AC
:10117000FB689A61FB689A69FB681B681946104610
:10118000FFF7D8FD03461A46FB681A62FB685C6AE3
:10119000FB689A69FB685B6819461046FFF7CAFD51
:1011A000034619462046FFF7BDFC03461A46FB6876
:1011B0005A62FB689A69FB68DB6919461046FFF7BB
:1011C000AFFC03461A46FB689B6819461046FFF7BA
:1011D000B1FD03461A46FB689A62FB685B6A2549C3
:1011E0001846FFF763FF0346002B02D0FB68214A35
:1011F0005A62FB685B6A20491846FFF739FF0346CD
:10120000002B02D0FB681C4A5A62FB681A6AFB6812
:101210005B6A19461046FFF785FC03461A46FB68D1
:101220009B6A19461046FFF77DFC03461A46FB6889
:10123000DA62FB68DB6A0F491846FFF737FF03469F
:10124000002B02D0FB680B4ADA62FB68DB6A0A49B2
:101250001846FFF70DFF0346002B02D0FB68064A35
:10126000DA62FB689A69FB68DA6100BF1437BD4631
:1012700090BD00BF0000C8430000C8C390B585B052
:1012800000AFF860B9607A60FB68BA68DA60FB6842
:101290007A681A61B9687868FFF742FC03461A4613
:1012A000FB689A61FB689A69FB681B6819461046DF
:1012B000FFF740FD03461A46FB681A62FB685C6A4A
:1012C000FB689A69FB685B6819461046FFF732FDB8
:1012D000034619462046FFF725FC03461A46FB68DD
:1012E0005A62FB689A69FB68DB6919461046FFF78A
:1012F00017FC03461A46FB689B6819461046FFF721
:1013000019FD03461A46FB689A62FB685B6A254929
:101310001846FFF7CBFE0346002B02D0FB68214A9C
:101320005A62FB685B6A20491846FFF7A1FE034634
:10133000002B02D0FB681C4A5A62FB681A6AFB68E1
:101340005B6A19461046FFF7EDFB03461A46FB6839
:101350009B6A19461046FFF7E5FB03461A46FB68F1
:10136000DA62FB68DB6A0F491846FFF79FFE034607
:10137000002B02D0FB680B4ADA62FB68DB6A0A4981
:101380001846FFF775FE0346002B02D0FB68064A9D
:10139000DA62FB689A69FB68DA6100BF1437BD4600
:1013A00090BD00BF0000C8420000C8C280B485B034
:1013B00000AFF860B9607A603B60FB68BA681A6099
:1013C000FB687A685A60FB683A689A6000BF143715
:1013D000BD4680BC704780B483B000AF78607B6846
:1013E0004FF000025A627B684FF00002DA6100BFE2
:1013F0000C37BD4680BC704780B584B000AF034653
:10140000FB800023FB73FB881946294802F05EFD30
:101410000346002B14BF01230023FB73FB88022B20
:101420003CD1FB7B002B0AD0224B1B6800225A6266
:10143000204804F0F1FD204B01221A702EE0FB7BC6
:1014400083F00103DBB2002B28D01A4B1B685B6AC8
:101450001A4A1360194B1B681846FFF713FC034622
:101460001846FEF7D9FF10A3D3E90023FFF72CF8A5
:1014700002460B46104619464FF000024FF08043DB
:10148000FFF74CF902460B4610461946FFF7F4FAEF
:1014900003460B4A1360084B02221A7000BF103734
:1014A000BD4680BDAFF300809CC420B07268A13FF0
:1014B000000C014080020020440400203C04002075
:1014C0004004002080B582B000AF786000224FF465
:1014D0000051234802F011FD7B6810221A807B68BE
:1014E000204A5A607B6802221A817B681D4ADA60B2
:1014F0007B681D4A1A617B680F229A777B680122FC
:10150000DA777B68012283F820207B68012283F848
:1015100021207B68032283F822207B687E221A75B3
:101520007B687E225A757B687E229A757B687E2254
:10153000DA757B687E221A767B68E7225A767B68AA
:10154000E7229A767B68E722DA767B68E7221A77C9
:101550007B68E7225A7700BF0837BD4680BD00BFD1
:101560000010014000080140E001002000000000E0
:1015700080B500AF1C4B1B681846FEF74DFF18A343
:10158000D3E90023FEF7EAFD02460B461046194652
:10159000FFF772FA0346144A1360134B1B68134A91
:1015A000126811461846FFF763FD0346002B04D06E
:1015B0000E4B1B680C4A13600FE00B4B1B680C4A68
:1015C000126811461846FFF771FD0346002B00D143
:1015D00003E0074B1B68044A136000BF80BD00BFD7
:1015E0009A9999999999B93F0C0000200800002018
:1015F000040000200000000080B500AF144B1B6801
:101600001846FEF709FF10A3D3E90023FEF7A4FD57
:1016100002460B4610461946FFF72EFA03460C4ABF
:1016200013600B4B1B680B4A126811461846FFF7F4
:101630003DFD0346002B00D103E0064B1B68044A26
:10164000136000BF80BD00BF343333333333C33F37
:101650000C0000200400002080B400AF054B4FF0C8
:1016600000021A60044B054A1A6000BFBD4680BCE8
:10167000704700BF30040020340400200000C8C2BE
:1016800080B400AF054B4FF000021A60044B054ACE
:101690001A6000BFBD4680BC704700BF3004002008
:1016A000340400200000C84280B400AF054B064A55
:1016B0001A60064B4FF000021A6000BFBD4680BCA6
:1016C000704700BF300400200000C84234040020EE
:1016D00080B400AF054B064A1A60064B4FF000027B
:1016E0001A6000BFBD4680BC704700BF30040020B8
:1016F0000000C8C23404002080B500AF094B0022AE
:101700001A70094B094A1A600948FFF764FE094834
:10171000FFF761FE0848FFF75EFE0848FFF75BFE33
:1017200000BF80BD470400200C00002000007A4468
:10173000380300206803002098030020C80300201D
:1017400080B500AF0D4B01221A700D4B0D4A1A6087
:101750000D4B1B680D4A13600D4B1B680D4A13603F
:101760000D48FFF738FE0D48FFF735FE0C48FFF730
:1017700032FE0C48FFF72FFE00BF80BD470400205B
:101780000C0000200080A2441C0400202004002043
:1017900018040020240400203803002068030020DF
:1017A00098030020C803002080B582B000AF00235A
:1017B000FB80414B4FF000021A60404B4FF000029B
:1017C0001A603F4B4FF000021A600023FB805BE081
:1017D0003C493D4801F010FA3A4BB3F90030184645
:1017E000FFF754FA0246394B1B6819461046FFF7BB
:1017F00099F903461A46354B1A60324BB3F9023059
:101800001846FFF743FA0246314B1B68194610464B
:10181000FFF788F903461A462D4B1A60294BB3F996
:1018200006301846FFF732FA0246234B1B6819466A
:101830001046FFF777F903461A461F4B1A60214BF3
:10184000B3F908301846FFF721FA02461B4B1B6814
:1018500019461046FFF766F903461A46174B1A60F9
:10186000184BB3F90A301846FFF710FA0246144B2A
:101870001B6819461046FFF755F903461A46104BE8
:101880001A60FB880133FB80FB88B3F5FA6F9FD3A6
:101890000E4B104A1A600E4B0F4A1A60064B0F4A45
:1018A0001A60064B0E4A1A60054B0E4A1A6000BFBA
:1018B0000837BD4680BD00BF0C0400201004002086
:1018C00014040020F00200208C01002004040020F9
:1018D000080400200080984300002A43000078C3D9
:1018E00000000EC3000040C280B500AF324BB3F918
:1018F00006301846FFF7CAF90246304B1B681946F6
:101900001046FFF70DF903461A462B4B9A612A4BF6
:10191000B3F908301846FFF7B9F90246284B1B689F
:1019200019461046FFF7FCF8034683F00043224AAD
:10193000D361214BB3F90A301846FFF7A7F90246E5
:10194000204B1B6819461046FFF7EAF8034683F060
:101950000043194A1362184BB3F900301846FFF7D9
:1019600095F90246184B1B6819461046FFF7D8F840
:1019700003461A46104B1A610F4BB3F90230184652
:10198000FFF784F90246114B1B6819461046FFF712
:10199000C7F8034683F00043074AD360064BB3F908
:1019A00004301846FFF772F9034683F00043024AF9
:1019B000536100BF80BD00BFF00200200C04002076
:1019C0001004002014040020040400200804002057
:1019D0002DE9B04300AFC04B1B6B1846FEF71CFD52
:1019E000B5A3D3E90023FEF76FFD02460B4614466C
:1019F0001D46B94B9B69B9491846FFF74FFA034694
:101A00001846FEF709FDAEA3D3E90023FEF75CFDFF
:101A100002460B4620462946FEF7A0FB02460B462F
:101A200010461946FFF728F80346AB4A1363AA4B42
:101A30005B6B1846FEF7F0FC9FA3D3E90023FEF78B
:101A400043FD02460B4614461D46A34BDB69A349E2
:101A50001846FFF723FA03461846FEF7DDFC98A365
:101A6000D3E90023FEF730FD02460B462046294607
:101A7000FEF774FB02460B4610461946FEF7FCFFC4
:101A80000346954A5363944B9B6B1846FEF7C4FC80
:101A900089A3D3E90023FEF717FD02460B4614463F
:101AA0001D468D4B1B6A8D491846FFF7F7F9034613
:101AB0001846FEF7B1FC82A3D3E90023FEF704FD2C
:101AC00002460B4620462946FEF748FB02460B46D7
:101AD00010461946FEF7D0FF03467F4A9363804BBA
:101AE0001B681846FEF798FC04460D467A4B9B6926
:101AF0001846FEF791FC74A3D3E90023FEF7E4FC3B
:101B000002460B4620462946FEF728FB02460B46B6
:101B100010461946FEF7B0FF0346714A1360714B39
:101B20001B681846FEF778FC04460D466A4BDB69D5
:101B30001846FEF771FC64A3D3E90023FEF7C4FC4A
:101B400002460B4620462946FEF708FB02460B4696
:101B500010461946FEF790FF0346624A1360614B38
:101B60001B681846FEF758FC04460D465C4B1B6884
:101B70001846FEF751FC80468946574B1B6A1846AB
:101B8000FEF74AFC52A3D3E90023FEF79DFC024670
:101B90000B461046194605F083F802460B464046B0
:101BA0004946FEF791FC02460B4620462946FEF7C1
:101BB000D3FA02460B4610461946FEF75DFF034670
:101BC000484A1360464B1B681846FEF725FC04463E
:101BD0000D46444B1B681846FEF71EFC804689469E
:101BE0003D4B1B6A1846FEF717FC39A3D3E90023C7
:101BF000FEF76AFC02460B461046194605F050F8FF
:101C000002460B4640464946FEF75EFC02460B463E
:101C100020462946FEF7A2FA02460B461046194610
:101C2000FEF72AFF03462E4A13602B4BDB682A4A35
:101C3000D26811461846FFF77DF803461C46264B2E
:101C40001B69254A126911461846FFF773F80346C7
:101C500019462046FEF766FF03461C461E4B5B698D
:101C60001D4A526911461846FFF764F803461946A3
:101C70002046FEF757FF03461846FEF7CDFB024607
:101C80000B461046194605F079F802460B461046F9
:101C90001946FEF7F1FE0346134A13600E4BDB684C
:101CA0001846FFF70DFA0346002BB8BF5B421846F3
:101CB0001CE000BFAFF300809A9999999999E93F88
:101CC0009A9999999999C93FAD5DA8361703143F20
:101CD0001F85FA7CE558B63EF002002000008342E2
:101CE000240400202004002014000020FEF7CEFF72
:101CF0000246654B1B6819461046FFF7B9F90346C3
:101D0000002B1FD0614BDB685F4A126811461846F2
:101D1000FFF7C4F803461846FEF77EFB02460B4663
:101D20001046194605F002F84FA3D3E90023FEF749
:101D3000CBFB02460B4610461946FEF79DFE0346B6
:101D4000534A1360514B1B691846FFF7B9F9034614
:101D5000002BB8BF5B421846FEF798FF02464A4B7D
:101D60001B6819461046FFF783F90346002B1FD066
:101D7000464B1B69444A126811461846FFF78EF815
:101D800003461846FEF748FB02460B461046194626
:101D900004F0CCFF36A3D3E90023FEF795FB0246FF
:101DA0000B4610461946FEF767FE0346394A136094
:101DB000384B1B68374A1360354B1B68344A136035
:101DC000354B1B681846FEF727FB2BA3D3E90023EE
:101DD000FEF77AFB02460B4614461D462D4B1B6848
:101DE0001846FEF719FB26A3D3E90023FEF76CFB88
:101DF00002460B4620462946FEF7B0F902460B463E
:101E000010461946FEF738FE0346234A1360234B5B
:101E10001B681846FEF700FB17A3D3E90023FEF763
:101E200053FB02460B4614461D46194B1B681846C9
:101E3000FEF7F2FA12A3D3E90023FEF745FB0246B0
:101E40000B4620462946FEF789F902460B46104606
:101E50001946FEF711FE0346104A136000BFBDE8A5
:101E6000B08300BFAFF30080D9CEF753E3A54CC0D9
:101E7000D9CEF753E3A54C4096438B6CE7FBEF3F7D
:101E8000FCA9F1D24D62403F14000020F002002076
:101E9000180400201C04002020040020240400203A
:101EA00080B500AF3C4B4FF000021A603B4B4FF047
:101EB00000021A603A4B4FF000021A60394B1B685F
:101EC00039491846FEF736FF03461A46374B1A6063
:101ED000374B1B6834491846FEF72CFF03461A4659
:101EE000344B1A60344B1B78002B27D0324B1B78B5
:101EF00003F01F03002B21D12F4B1B78202B02D185
:101F0000FFF7D2FB1AE02C4B1B78402B02D1FFF7D6
:101F1000A3FB13E0284B1B78602B02D1FFF7D8FB03
:101F20000CE0254B1B78802B02D1FFF7A9FB05E0C5
:101F3000214B1B78102B01D1FFF7DEFB164B1B68E2
:101F40001C4A126811461846FEF7EAFD03461A4677
:101F5000114B1A60114B1B68144A1268114618463F
:101F6000FEF7DEFD03461A460C4B1A600A4B1B684F
:101F700012491846FEF792FF03461A46064B1A60AE
:101F8000064B1B680D491846FEF788FF03461A46A4
:101F9000024B1A6000BF80BD3404002030040020D2
:101FA0003804002020040020000070412804002094
:101FB000240400202C040020EC02002000004040FB
:101FC00080B500AF01220121044801F096FF0022F4
:101FD0000121024801F091FF00BF80BD000C0140CB
:101FE000B0B500AF304B1B78002B49D1FFF7E8FFAD
:101FF0002E4B1B681846FEF70FFA27A3D3E90023E0
:10200000FEF762FA02460B4614461D46284B1B6833
:102010001846FEF701FA22A3D3E90023FEF754FA8B
:1020200002460B4620462946FEF798F802460B4624
:1020300010461946FEF720FD03461C4A13601B4B51
:102040001B684FF081411846FFF712F80346002B3A
:1020500003D0164B4FF081421A60144B1B68154990
:102060001846FFF723F80346002B02D00F4B114A06
:102070001A600D4B1B780133DAB20B4B1A7006E075
:10208000094B1B78002B02D0074B00221A7000BFAF
:10209000B0BD00BFAFF300809A9999999999E93F33
:1020A0009A9999999999C93F4504002024000020E4
:1020B000400400200000E14380B500AF01F046FC81
:1020C0000246104B1B68D31A0F4A13600E4B1B6855
:1020D000052B0BD90D4B01221A7007E001F036FCDD
:1020E0000246084B1B68D31A074A1360064B1B684D
:1020F000032BF3D901F02AFC0346024A136000BF08
:1021000080BD00BF00040020F8030020460400202A
:1021100080B582B000AF4FF083437E4A7E497F484E
:10212000FFF744F94FF083437A4A7B497C48FFF735
:102130003DF94FF000037B4A7B497C48FFF736F9B5
:102140004FF080437A4A7B497B48FFF72FF901F033
:10215000A5FB00F09DFA00F037FC00F0DDFA00F07E
:1021600009FB00F03DFB00F0E3FB00224FF40051BF
:10217000724801F0C2FE0AE0714800F0D0FC03464C
:102180001A46704B83F83C20322001F0E9FB6D4B7E
:1021900093F83C30682BEFD16B48FFF793F96A480E
:1021A00000F06DFF642001F0DBFB664B4FF0000296
:1021B000DA60644B4FF000021A61624B4FF000028C
:1021C0005A61604B4FF000025A625E4B4FF00002C2
:1021D0009A625C4B4FF00002DA625A4B4FF00002F9
:1021E0001A63584B4FF000025A63564B4FF00002EF
:1021F0009A63642001F0B4FB0021544803F0A6FF69
:102200000421524803F0A2FF0821504803F09EFF2A
:102210000C214E4803F09AFF4C4B1B684FF47A7226
:102220005A634A4B1B684FF47A729A63474B1B6898
:102230004FF47A72DA63454B1B684FF47A721A6472
:10224000FFF7B2FA01F082FB0346414A1360012214
:102250004FF40051394801F050FE3E493A4801F030
:1022600062F83849364800F0C7FCFFF73DFBFFF73E
:10227000AFFBFFF715FEFFF7B3FE374B00221A70D6
:10228000354B00221A7023E0324B1B781A46324B32
:102290001B7842FA03F303F00103002B1DD12E4BF0
:1022A0001B78042B0ED12B4B1B781A462A4B1B781C
:1022B00042FA03F303F00103002B03D1264B0A2259
:1022C0001A700BE0244B1B780133DAB2224B1A70E0
:1022D000214B1B78042BD7D900E000BF1E4B1B7885
:1022E000032B02D1FFF708FA47E01B4B1B78022BA8
:1022F00009D11A4B1B7883F00103DBB2002B3CD0D1
:10230000FFF71EFA39E0144B1B78002B28D1FFF79A
:1023100073F932E05839B43C1F856B3F3803002015
:1023200068030020E3A59B3CCDCC4C4098030020E3
:102330006F12833ACDCC4C3EC80300200010014000
:102340008C010020F0020020C8020020380200208A
:1023500000040020EC020020ED02002048040020D0
:102360007A4B1B78012B08D1794B1B7883F0010342
:10237000DBB2002B01D0FFF7FBF8764B1B68764AE7
:10238000126B19467548FEF7E1FE754B1B68724AE1
:10239000526B19467348FEF7D9FE734B1B686E4AA1
:1023A000926B19467148FEF7D1FE714B1B68714A5A
:1023B000126819467048FEF761FF654B1B78002BC9
:1023C00037D06E4B1B78002B33D001F0BFFA02469A
:1023D0006B4B1B68D31A3B603B68B3F5FA7F0ED991
:1023E000684B1B6868491846FEF79AFB03461A4675
:1023F000644B1A6001F0AAFA0346614A13605D4B10
:102400001B684FF082411846FEF73CFE0346002B46
:102410000AD05C4B1B685D491846FEF733FE034645
:10242000002B01D0FFF768F9564B1B68584A136020
:1024300003E0544B1B68564A1360504B1B78002B2B
:1024400000F00481454BDB6A514A12681146184678
:10245000FEF768FB03461A46424BDB6A19461046F4
:10246000FEF760FB03461A46404BDB6A19461046EE
:10247000FEF758FB03461846FEF748FE03469AB29D
:10248000444B1A80354BDB6A414A126811461846A4
:10249000FEF748FB03461A46324BDB6A19461046E4
:1024A000FEF73EFB03461A46304BDB6A19461046E0
:1024B000FEF736FB03461846FEF728FE03469AB29F
:1024C000344B5A80324B1B68244AD26A1146184654
:1024D000FEF726FB03461A46224BDB6A19461046D6
:1024E000FEF720FB03461A46204BDB6A19461046CE
:1024F000FEF716FB03461846FEF708FE03469AB29F
:10250000244B9A80224B1B68144AD26A1146184603
:10251000FEF706FB03461A46124BDB6A19461046C5
:10252000FEF7FEFA03461A46104BDB6A19461046C0
:10253000FEF7F8FA03461846FEF7E8FD03469AB29E
:10254000144BDA8000237B6068E000BFED020020BE
:102550004804002034040020F0020020380300204A
:102560003004002068030020380400209803002075
:102570001800002024000020C80300204704002089
:10258000FC0300200C0000200000A0410000964445
:10259000100000201C000020384A7B6832F81330FD
:1025A0001846FEF773FB0246354B1B68194610466A
:1025B000FEF77CFD0346002B0AD0314B1B68184602
:1025C000FEF7A4FD034699B22C4A7B6822F813104B
:1025D0002A4A7B6832F813301846FEF757FB02464A
:1025E000284B1B6819461046FEF742FD0346002B98
:1025F00011D0254B1B7883F00103DBB2002B0AD0EE
:10260000204B1B681846FEF781FD034699B21B4A12
:102610007B6822F813107B6801337B607B68032B97
:10262000BADD164B1A88194B1B685A63134B5A882C
:10263000164B1B689A63114B9A88144B1B68DA631C
:102640000E4BDA88114B1B681A6413E00F4B1B68A2
:102650004FF47A725A630D4B1B684FF47A729A6387
:102660000A4B1B684FF47A72DA63084B1B684FF40D
:102670007A721A64FFF720FDEFE500BF1C0000200E
:10268000000000200800002048040020380200203C
:1026900080B590B000AF07F118032822002118463A
:1026A00004F0F6FA3B1D00221A605A609A60DA6064
:1026B0001A610123BB614FF48033FB6100233B624D
:1026C0000123BB6202237B634FF48033BB634FF46F
:1026D000E013FB6307F11803184602F03FFC0346C2
:1026E000002B01D000F016FA0F237B600223BB60A1
:1026F0008023FB6000233B6100237B613B1D0221A3
:10270000184602F0ADFE0346002B01D000F002FA9D
:1027100000BF4037BD4680BD80B500AF124B134AA5
:102720001A60114B124A5A600F4B00229A600E4BEE
:102730000022DA600C4B4FF480421A610A4B0022EF
:102740005A61094B00229A61074B0022DA61064B5D
:1027500000221A62044801F001FC0346002B01D05C
:1027600000F0D8F900BF80BD8C0100200058004067
:10277000801A060080B500AF174B184A1A60164B36
:102780004FF482725A60144B00229A60124B00225E
:10279000DA60114B00221A610F4B00225A610E4B76
:1027A0004FF400729A610C4B3022DA610A4B00221E
:1027B0001A62094B00225A62074B00229A62064BAA
:1027C0000A22DA62044802F0CFFF0346002B01D050
:1027D00000F0A0F900BF80BDE00100200030014002
:1027E00080B592B000AF07F1400300221A605A6032
:1027F00007F1240300221A605A609A60DA601A61B5
:102800005A619A613B1D20220021184604F040FACB
:10281000454B464A1A60444B1F225A60424B0022E5
:102820009A60414B44F61F62DA603F4B00221A6106
:102830003D4B00225A613C4B00229A613A4803F01A
:1028400035FC0346002B01D000F064F900233B6403
:1028500000237B6407F140031946334804F03EF936
:102860000346002B01D000F055F960237B624FF442
:102870007A73BB620023FB6200233B6300237B630C
:102880000023BB630023FB6307F1240300221946E6
:10289000254803F0FDFC0346002B01D000F03AF977
:1028A00007F12403042219461F4803F0F1FC0346F4
:1028B000002B01D000F02EF907F12403082219465D
:1028C000194803F0E5FC0346002B01D000F022F983
:1028D00007F124030C221946134803F0D9FC0346E0
:1028E000002B01D000F016F900237B600023BB60B1
:1028F0000023FB6000233B6100237B614FF4005306
:10290000BB6100233B623B1D1946074804F044F9B4
:102910000346002B01D000F0FDF8034800F030FF23
:1029200000BF4837BD4680BD38020020002C014062
:1029300080B586B000AF07F1080300221A605A6024
:102940009A60DA603B4600221A605A601D4B4FF0D5
:1029500080421A601B4B23225A601A4B00229A6055
:10296000184B4FF6FE72DA60164B00221A61154BB7
:1029700000229A61134803F0FFFA0346002B01D0AE
:1029800000F0C8F84FF48053BB6007F10803194604
:102990000C4803F03BFD0346002B01D000F0BAF8D1
:1029A00000233B6000237B603B461946054804F04A
:1029B00095F80346002B01D000F0ACF800BF1837A3
:1029C000BD4680BD8002002080B588B000AF07F111
:1029D000100300221A605A609A60DA60474B9B69C4
:1029E000464A43F010039361444B9B6903F0100384
:1029F000FB60FB68414B9B69404A43F020039361B5
:102A00003E4B9B6903F02003BB60BB683B4B9B695B
:102A10003A4A43F004039361384B9B6903F0040383
:102A20007B607B68354B9B69344A43F008039361B4
:102A3000324B9B6903F008033B603B6800224FF474
:102A400000512F4801F059FA002212212D4801F0BF
:102A500054FA002201212C4801F04FFA4FF40053A0
:102A60003B6101237B610023BB610223FB6107F112
:102A700010031946224801F0A5F812233B610123F7
:102A80007B610023BB610223FB6107F11003194640
:102A90001C4801F097F801233B6101237B6100236F
:102AA000BB610223FB6107F110031946164801F0D0
:102AB00089F802233B61154B7B610023BB6107F161
:102AC00010031946104801F07DF808233B61104BB4
:102AD0007B610023BB6107F1100319460A4801F02E
:102AE00071F800220021072001F035F8072001F0DD
:102AF0004EF800BF2037BD4680BD00BF0010024029
:102B00000010014000080140000C0140000031109D
:102B10000000111080B400AF72B600BFFEE780B5B0
:102B200088B004AF786042F21073029301230193DE
:102B300007F10F03009301237522D021786801F07B
:102B40004BFCFB7B682B51D10023BB7342F210730B
:102B500002930123019307F10E03009301236B22DB
:102B6000D021786801F03EFB0023BB7342F2107362
:102B700002930123019307F10E030093012319220D
:102B8000D021786801F02EFB0823BB7342F210734A
:102B900002930123019307F10E03009301231B22EB
:102BA000D021786801F01EFB1023BB7342F2107332
:102BB00002930123019307F10E03009301231C22CA
:102BC000D021786801F00EFB0323BB7342F210732F
:102BD00002930123019307F10E03009301231A22AC
:102BE000D021786801F0FEFAFB7B00E00023184654
:102BF0001037BD4680BD0000B0B58AB004AF786024
:102C0000396042F2107302930E23019307F1080317
:102C1000009301233B22D021786801F0DDFB3B7A51
:102C20001B021AB27B7A1BB213431AB23B681A809A
:102C3000BB7A1B021AB2FB7A1BB213431AB23B686F
:102C40005A803B7B1B021AB27B7B1BB213431AB226
:102C50003B689A803B7C1B021AB27B7C1BB21343FD
:102C60001AB23B68DA80BB7C1B021AB2FB7C1BB237
:102C700013431AB23B681A813B7D1B021AB27B7D5B
:102C80001BB213431AB23B685A813B68B3F9003058
:102C90001846FDF7FBFF03461846FDF7BDFB04464B
:102CA0000D463B68B3F900301846FDF7EFFF0346C9
:102CB00045491846FEF7F2F803461846FDF7ACFB07
:102CC00002460B463EA1D1E90001CDE90201CDE962
:102CD000002322462B463D4800F07EF802460B4674
:102CE00010461946FDF7C8FE02463B685A623B682B
:102CF000B3F902301846FDF7C9FF03461846FDF741
:102D00008BFB04460D463B68B3F902301846FDF7CD
:102D1000BDFF03462C491846FEF7C0F80346184687
:102D2000FDF77AFB02460B4625A1D1E90001CDE96A
:102D30000201CDE9002322462B46254800F04CF83D
:102D400002460B4610461946FDF796FE02463B68C2
:102D50009A623B68B3F904301846FDF797FF0346C3
:102D60001846FDF759FB04460D463B68B3F904309D
:102D70001846FDF78BFF034613491846FEF78EF8F9
:102D800003461846FDF748FB02460B460CA1D1E965
:102D90000001CDE90201CDE9002322462B460D4872
:102DA00000F01AF802460B4610461946FDF764FE7D
:102DB00002463B68DA6200BF1837BD46B0BD00BFAF
:102DC0007B14AE47E17A843F004083452800002011
:102DD00070000020B8000020B0B592B000AFF860DD
:102DE000C7E90023FB68D3E90823D7E91601FDF7FB
:102DF000B3F902460B46C7E91023FB68D3E9064541
:102E0000D7E91023D7E91801FDF75EFB02460B4610
:102E100020462946FDF7A2F902460B46F968C1E9AA
:102E20000623FB68D3E90A45FB68D3E91001D7E91B
:102E30001823FDF749FB02460B4610461946FB686E
:102E4000D3E90C23FDF788F902460B4610461946D4
:102E5000FB68D3E90E23FDF77FF902460B461046C7
:102E60001946FB68D3E90023FDF778F902460B46C3
:102E700010461946D7E91823FDF726FB02460B46F4
:102E800020462946FDF76AF902460B46F968C1E972
:102E90000A23FB68D3E90C45FB68D3E91001D7E9A5
:102EA0001823FDF711FB02460B4620462946FDF785
:102EB00053F902460B46F968C1E90C23FB68D3E9D4
:102EC0000E45FB68D3E91001D7E91823FDF7FCFA9A
:102ED00002460B4620462946FDF73EF902460B46C0
:102EE000F968C1E90E23FB68D3E91045FB68D3E913
:102EF0000201D7E91823FDF7E7FA02460B46204600
:102F00002946FDF72BF902460B46F968C1E9102363
:102F1000FB68D3E90A01FB68D3E90423FDF71EF936
:102F200002460B46C7E90E23FB68D3E90A01D7E93D
:102F30000E23FDF7F3FB02460B46C7E90423FB68AB
:102F4000D3E90E01D7E90E23FDF7E8FB02460B4655
:102F5000C7E90623FB68D3E90623D7E90001FDF79B
:102F6000FBF802460B46C7E90C23FB68D3E906458C
:102F7000D7E90401D7E90C23FDF7A6FA02460B4670
:102F800020462946FDF7EAF802460B46F968C1E9F2
:102F90000623FB68D3E90845D7E90601D7E90C23E6
:102FA000FDF792FA02460B4620462946FDF7D6F871
:102FB00002460B46F968C1E90823FB68D3E90A23F6
:102FC000C7E90A23FB68D3E90C23C7E90823FB6898
:102FD000D3E90A45D7E90401D7E90A23FDF774FAD2
:102FE00002460B4620462946FDF7B6F802460B4638
:102FF000F968C1E90A23FB68D3E90C45D7E9040164
:10300000D7E90823FDF760FA02460B462046294619
:10301000FDF7A2F802460B46F968C1E90C23FB68EC
:10302000D3E90E45D7E90601D7E90A23FDF74CFAA3
:1030300002460B4620462946FDF78EF802460B460F
:10304000F968C1E90E23FB68D3E91045D7E9060109
:10305000D7E90823FDF738FA02460B4620462946F1
:10306000FDF77AF802460B46F968C1E91023FB68C0
:10307000D3E90623104619464837BD46B0BD80B592
:1030800082B000AF7860786800F09FF8786800F050
:103090006CF87B6893F82030202B03D97B682022C2
:1030A00083F82020786800F068F9786800F013FA57
:1030B0007B6893F820301A461121786800F0C5F833
:1030C0007B6893F820301A461221786800F0BDF82A
:1030D0007B6893F820301A461321786800F0B5F821
:1030E0007B6893F820301A461421786800F0ADF818
:1030F0007B6893F820301A461521786800F0A5F80F
:103100007B6893F820301A461621786800F09DF805
:10311000786800F0F3F978220021786800F095F8DB
:1031200000220121786800F090F83F22022178689F
:1031300000F08BF840220421786800F086F8002225
:103140001C21786800F081F8786800F04EF8786803
:1031500000F063F8786800F00FFA786800F0CAF8B9
:10316000012318460837BD4680BD80B582B000AF48
:1031700078607B6858687B681B880022194600F0DD
:10318000BCFE00BF0837BD4680BD80B582B000AF31
:1031900078607B6858687B681B880122194600F0BC
:1031A000ACFE00BF0837BD4680BD80B582B000AF21
:1031B00078607B68D8687B681B890022194600F01C
:1031C0009CFE00BF0837BD4680BD80B582B000AF11
:1031D00078607B68D8687B681B890122194600F0FB
:1031E0008CFE00BF0837BD4680BD80B584B000AFFF
:1031F00078607868FFF7D9FFE123FB737B68186973
:1032000007F10F016423012202F032FB7868FFF717
:10321000DCFF00BF1037BD4680BD80B584B000AF75
:1032200078607868FFF7C1FFE223FB737B68186959
:1032300007F10F016423012202F01AFB7868FFF7FF
:10324000C4FF00BF1037BD4680BD80B584B000AF5D
:1032500078600B46FB701346BB707868FFF7A5FFDC
:10326000FB7803F01F03DBB243F02003DBB2FB73F8
:103270007B68186907F10F016423012202F0F8FA54
:103280007B681869B91C6423012202F0F1FA78689E
:10329000FFF79BFF00BF1037BD4680BD80B586B0ED
:1032A00000AFF8607A601A460B46FB721346BB7299
:1032B000F868FFF77AFFFB7A03F01F03DBB243F0F5
:1032C0002003DBB2FB75FB68186907F11701642363
:1032D000012202F0CDFAFB681869BB7A9AB2642326
:1032E000796802F0C5FAF868FFF76FFF00BF18377A
:1032F000BD4680BD80B582B000AF78607868FFF7CA
:1033000034FF7868FFF789FF786800F035F97B2291
:1033100000217868FFF799FF7868FFF736FF00BF54
:103320000837BD4680BD80B586B002AF7860396091
:103330007868FFF73AFF6123FB737B68186907F130
:103340000F016423012202F093FA7B6818697B68FD
:1033500093F820309BB2642200923A68396802F0F8
:10336000C3FB7868FFF711FF402207217868FFF759
:103370006CFF00BF1037BD4680BD80B584B000AF84
:103380007860082200217868FFF75FFF3F22012163
:103390007868FFF75AFF032202217868FFF755FF8C
:1033A000032203217868FFF750FF03220421786885
:1033B000FFF74BFF022205217868FFF746FF0E2238
:1033C00006217868FFF741FF0E2207217868FFF792
:1033D0003CFF002208217868FFF737FF002209210F
:1033E0007868FFF732FFE7233B72E7237B72E7231E
:1033F000BB72E723FB72E7233B7307F10802052347
:103400000A217868FFF74AFFC2233B72C2237B720E
:10341000C223BB72C223FB72C2233B7307F10802B3
:1034200005230B217868FFF739FFC3220C21786848
:10343000FFF70BFFC4220D217868FFF706FFC522B6
:103440000E217868FFF701FFC6220F217868FFF789
:10345000FCFEE7233B72E7237B72E723BB72E72383
:10346000FB72E7233B7307F10802052310217868FC
:10347000FFF714FF002211217868FFF7E6FE002213
:1034800012217868FFF7E1FE002213217868FFF728
:10349000DCFE002214217868FFF7D7FE00221521F8
:1034A0007868FFF7D2FE002216217868FFF7CDFE7C
:1034B000112217217868FFF7C8FE00221C217868C6
:1034C000FFF7C3FE00221D217868FFF7BEFE00BF94
:1034D0001037BD4680BD80B582B000AF78607B6894
:1034E0009B7F7D2B06D87B689B7F1A4605217868D9
:1034F000FFF7ABFE00BF0837BD4680BD80B584B086
:1035000000AF78600023FB737B68DB7F002B04D166
:10351000FB7B43F00803FB7307E07B68DB7F022B38
:1035200003D1FB7B43F02003FB737B6893F82230CD
:10353000032B04D1FB7B43F00603FB7312E07B6893
:1035400093F82230022B04D1FB7B43F00403FB737E
:1035500008E07B6893F82230012B03D1FB7B43F01A
:103560000203FB73FB7B1A4606217868FFF76DFEAA
:1035700000BF1037BD4680BD80B582B000AF786017
:10358000702207217868FFF760FE00BF0837BD464C
:1035900080BD000080B485B000AF154B9B69144A14
:1035A00043F001039361124B9B6903F00103BB607D
:1035B000BB680F4BDB690E4A43F08053D3610C4B61
:1035C000DB6903F080537B607B680A4B5B68FB60C0
:1035D000FB6823F0E063FB60FB6843F00073FB6073
:1035E000044AFB68536000BF1437BD4680BC704777
:1035F000001002400000014080B588B000AF786044
:1036000007F1100300221A605A609A60DA607B6842
:103610001B68164A934224D1154B9B69144A43F008
:1036200008039361124B9B6903F00803FB60FB687E
:103630004FF440633B6112237B610323FB6107F17D
:10364000100319460B4800F0BDFA094BDB69084A24
:1036500043F48003D361064BDB6903F48003BB6052
:10366000BB6800BF2037BD4680BD00BF005800408A
:1036700000100240000C014080B588B000AF7860B7
:1036800007F1100300221A605A609A60DA607B68C2
:103690001B681B4A93422FD11A4B9B69194A43F46A
:1036A00080539361174B9B6903F48053FB60FB6865
:1036B000144B9B69134A43F004039361114B9B69BC
:1036C00003F00403BB60BB68A0233B6102237B6162
:1036D0000323FB6107F1100319460B4800F072FA4F
:1036E00040233B6100237B610023BB6107F1100392
:1036F0001946054800F066FA00BF2037BD4680BD78
:1037000000300140001002400008014080B485B044
:1037100000AF78607B681B68094A93420BD1094B64
:103720009B69084A43F400639361064B9B6903F469
:103730000063FB60FB6800BF1437BD4680BC704768
:10374000002C01400010024080B485B000AF7860CA
:103750007B681B68B3F1804F0BD1084BDB69074ACC
:1037600043F00103D361054BDB6903F00103FB6008
:10377000FB6800BF1437BD4680BC70470010024094
:1037800080B588B000AF786007F1100300221A609E
:103790005A609A60DA607B681B68104A934218D1BD
:1037A0000F4B9B690E4A43F0040393610C4B9B69DA
:1037B00003F00403FB60FB684FF470633B6102237A
:1037C0007B610223FB6107F110031946054800F0F5
:1037D000F9F900BF2037BD4680BD00BF002C014075
:1037E000001002400008014080B400AFFEE780B442
:1037F00000AFFEE780B400AFFEE780B400AFFEE7A5
:1038000080B400AFFEE780B400AF00BFBD4680BC0F
:10381000704780B400AF00BFBD4680BC704780B425
:1038200000AF00BFBD4680BC704780B500AF00F060
:103830007BF800BF80BD80B500AF022000F076FBB2
:1038400000BF80BD80B400AF00BFBD4680BC7047E4
:103850000C480D490D4A002302E0D458C4500433EB
:10386000C4188C42F9D30A4A0A4C002301E01360C1
:103870000432A242FBD3FFF7E5FF03F0E5F9FEF7C0
:1038800047FC70470000002070010020C084000841
:103890007001002050040020FEE7000080B500AF5A
:1038A000084B1B68074A43F010031360032000F025
:1038B00047F90F2000F008F8FFF76CFE00231846C8
:1038C00080BD00BF0020024080B582B000AF7860AC
:1038D000124B1A68124B1B7819464FF47A73B3FBDC
:1038E000F1F3B2FBF3F3184600F05FF90346002B47
:1038F00001D001230EE07B680F2B0AD800227968E3
:103900004FF0FF3000F027F9064A7B681360002370
:1039100000E0012318460837BD4680BD00010020A5
:10392000080100200401002080B400AF054B1B7883
:103930001A46054B1B681344034A136000BFBD467B
:1039400080BC7047080100204C04002080B400AF08
:10395000024B1B681846BD4680BC70474C040020D3
:1039600080B584B000AF7860FFF7F0FFB8607B6887
:10397000FB60FB68B3F1FF3F05D00A4B1B781A468A
:10398000FB681344FB6000BFFFF7E0FF0246BB6823
:10399000D31AFA689A42F7D800BF00BF1037BD4665
:1039A00080BD00BF0801002080B485B000AF786002
:1039B0007B6803F00703FB600C4BDB68BB60BA68F5
:1039C0004FF6FF031340BB60FB681A02BB6813434A
:1039D00043F0BF6343F40033BB60044ABB68D36069
:1039E00000BF1437BD4680BC704700BF00ED00E04B
:1039F00080B400AF044BDB681B0A03F007031846D2
:103A0000BD4680BC704700BF00ED00E080B483B0CD
:103A100000AF0346FB7197F90730002B0BDBFB79F6
:103A200003F01F02064997F907305B09012000FAED
:103A300002F241F8232000BF0C37BD4680BC70471E
:103A400000E100E080B483B000AF03463960FB7151
:103A500097F90730002B0ADB3B68DAB20C4997F97B
:103A600007301201D2B20B4483F800230AE03B680E
:103A7000DAB20849FB7903F00F03043B1201D2B21A
:103A80000B441A7600BF0C37BD4680BC704700BFA0
:103A900000E100E000ED00E080B489B000AFF86024
:103AA000B9607A60FB6803F00703FB61FB69C3F14F
:103AB0000703042B28BF0423BB61FB690433062BD7
:103AC00002D9FB69033B00E000237B614FF0FF322A
:103AD000BB6902FA03F3DA43BB681A407B699A4078
:103AE0004FF0FF317B6901FA03F3D9437B680B4048
:103AF000134318462437BD4680BC704780B582B05A
:103B000000AF78607B68013BB3F1807F01D3012374
:103B10000FE00A4A7B68013B53600F214FF0FF30F2
:103B2000FFF790FF054B00229A60044B07221A60B2
:103B3000002318460837BD4680BD00BF10E000E0F6
:103B400080B582B000AF78607868FFF72DFF00BFC6
:103B50000837BD4680BD80B586B000AF0346B9606A
:103B60007A60FB7300237B61FFF742FF78617A681C
:103B7000B9687869FFF790FF024697F90F30114650
:103B80001846FFF75FFF00BF1837BD4680BD80B500
:103B900082B000AF0346FB7197F907301846FFF774
:103BA00035FF00BF0837BD4680BD80B582B000AF8D
:103BB00078607868FFF7A2FF034618460837BD46CD
:103BC00080BD000080B48BB000AF78603960002306
:103BD0007B6200233B6269E101227B6A02FA03F304
:103BE000FB613B681B68FA691340BB61BA69FB69FA
:103BF0009A4240F058813B685B689A4A93425ED093
:103C0000984A934275D8984A934258D0964A93421C
:103C10006FD8964A934252D0944A934269D8944AB4
:103C200093424CD0924A934263D8924A934246D0F0
:103C3000904A93425DD8122B2AD8122B59D801A250
:103C400052F823F0BF3C0008993C0008AB3C000848
:103C5000ED3C0008F33C0008F33C0008F33C00088E
:103C6000F33C0008F33C0008F33C0008F33C000878
:103C7000F33C0008F33C0008F33C0008F33C000868
:103C8000F33C0008F33C0008A13C0008B53C0008E8
:103C9000794A934213D02CE03B68DB683B6229E011
:103CA0003B68DB6804333B6224E03B68DB68083335
:103CB0003B621FE03B68DB680C333B621AE03B6809
:103CC0009B68002B02D104233B6213E03B689B6896
:103CD000012B05D108233B627B68FA691A6109E070
:103CE00008233B627B68FA695A6103E000233B6268
:103CF00000E000BFBB69FF2B01D87B6801E07B6857
:103D000004337B61BB69FF2B02D87B6A9B0002E016
:103D10007B6A083B9B003B617B691A680F213B690A
:103D200001FA03F3DB431A40396A3B6901FA03F3F2
:103D30001A437B691A603B685B6803F08053002B71
:103D400000F0B1804D4B9B694C4A43F001039361F5
:103D50004A4B9B6903F00103BB60BB68484A7B6A1E
:103D60009B08023352F82330FB607B6A03F00303A5
:103D70009B000F2202FA03F3DB43FA681340FB6057
:103D80007B68404A934213D07B683F4A93420DD0F0
:103D90007B683E4A934207D07B683D4A934201D1FB
:103DA000032306E0042304E0022302E0012300E0F1
:103DB00000237A6A02F0030292009340FA681343E8
:103DC000FB602F497B6A9B080233FA6841F8232085
:103DD0003B685B6803F48033002B06D02D4B1A68D8
:103DE0002C49BB6913430B6006E02A4B1A68BB6978
:103DF000DB43284913400B603B685B6803F40033E6
:103E0000002B06D0234B5A682249BB6913434B60F1
:103E100006E0204B5A68BB69DB431E4913404B60E8
:103E20003B685B6803F48013002B06D0194B9A683B
:103E30001849BB6913438B6006E0164B9A68BB694F
:103E4000DB43144913408B603B685B6803F4001349
:103E5000002B21D00F4BDA680E49BB691343CB60AE
:103E600021E000BF000032100000311000002210DD
:103E7000000021100000121000001110001002407C
:103E80000000014000080140000C0140001001400A
:103E900000140140000401400B4BDA68BB69DB43AE
:103EA00009491340CB607B6A01337B623B681A6827
:103EB0007B6A22FA03F3002B7FF48EAE00BF00BFB3
:103EC0002C37BD4680BC70470004014080B485B0EB
:103ED00000AF78600B467B807B689A687B881340D4
:103EE000002B02D00123FB7301E00023FB73FB7B5B
:103EF00018461437BD4680BC704780B483B000AF0D
:103F000078600B467B8013467B707B78002B03D058
:103F10007A887B681A6103E07B881A047B681A61DF
:103F200000BF0C37BD4680BC7047000080B582B032
:103F300000AF0346FB80084B5A69FB881340002BF7
:103F400006D0054AFB885361FB881846FDF754FAF2
:103F500000BF0837BD4680BD0004014080B584B075
:103F600000AF78607B68002B01D101232BE17B68D7
:103F700093F83D30DBB2002B06D17B68002283F83A
:103F80003C207868FFF738FB7B68242283F83D20CB
:103F90007B681B681A687B681B6822F001021A6044
:103FA0007B681B681A687B681B6842F400421A60D1
:103FB0007B681B681A687B681B6822F400421A60E1
:103FC00001F0A0FBF8607B685B68814A934207D8E8
:103FD000FB68804A934294BF01230023DBB206E0D2
:103FE000FB687D4A934294BF01230023DBB2002B80
:103FF00001D00123E7E0FB68784AA2FB03239B0C76
:10400000BB607B681B685B6823F03F017B681B68B3
:10401000BA680A435A607B681B681B6A23F03F0139
:104020007B685B686A4A934202D8BB68013309E047
:10403000BB684FF4967202FB03F3694AA2FB0323A9
:104040009B0901337A6812680B4313627B681B6813
:10405000DB6923F44F4222F0FF027B685B685C4916
:104060008B4219D8FB68591E7B685B685B00B1FB0B
:10407000F3F3591C40F6FC730B40002B0AD0FB688D
:10408000591E7B685B685B00B1FBF3F30133C3F33C
:104090000B0351E004234FE07B689B68002B11D198
:1040A000FB68581E7B6859680B465B000B44B0FBED
:1040B000F3F30133C3F30B03002B0CBF01230023E5
:1040C000DBB212E0FB68581E7B6859680B469B0008
:1040D0000B4499000B44B0FBF3F30133C3F30B0320
:1040E000002B0CBF01230023DBB2002B01D00123E6
:1040F00022E07B689B68002B0ED1FB68581E7B6812
:1041000059680B465B000B44B0FBF3F30133C3F378
:104110000B0343F400430FE0FB68581E7B685968AB
:104120000B469B000B4499000B44B0FBF3F30133A7
:10413000C3F30B0343F44043796809681343CB612D
:104140007B681B681B6823F0C0017B68DA697B68A9
:104150001B6A1A437B681B680A431A607B681B68EA
:104160009B6823F4034323F0FF037A6811697A689C
:10417000D26811437A6812680B4393607B681B68AE
:10418000DB6823F0FF017B685A697B689B691A43EF
:104190007B681B680A43DA607B681B681A687B6867
:1041A0001B6842F001021A607B6800221A647B6877
:1041B000202283F83D207B6800221A637B6800225E
:1041C00083F83E20002318461037BD4680BD00BF4F
:1041D000A08601007F841E00FF083D0083DE1B4394
:1041E000D34D621080B588B002AFF8600846114622
:1041F0001A4603467B810B463B811346FB80FFF743
:10420000A5FB7861FB6893F83D30DBB2202B40F0D2
:10421000D9807B690093192301226D49F86800F069
:10422000C1FC0346002B01D00223CCE0FB6893F8CD
:104230003C30012B01D10223C5E0FB68012283F849
:104240003C20FB681B681B6803F00103012B07D0AF
:10425000FB681B681A68FB681B6842F001021A6061
:10426000FB681B681A68FB681B6822F400621A600E
:10427000FB68212283F83D20FB68402283F83E2022
:10428000FB6800221A64FB683A6A5A62FB68BA8CBF
:104290005A85FB685B8D9AB2FB681A85FB684D4AAC
:1042A000DA62F8883A8979897B690193BB6A00935D
:1042B0000346F86800F0F8FA0346002B52D00123B9
:1042C00081E07A69B96AF86800F042FD0346002B84
:1042D0000DD0FB681B6C042B07D1FB681B681A68A8
:1042E000FB681B6842F400721A6001236BE0FB68F4
:1042F0005B6A1A78FB681B681A61FB685B6A5A1C68
:10430000FB685A62FB681B8D013B9AB2FB681A85F9
:10431000FB685B8D9BB2013B9AB2FB685A85FB68D8
:104320001B685B6903F00403042B1BD1FB681B8D26
:10433000002B17D0FB685B6A1A78FB681B681A6150
:10434000FB685B6A5A1CFB685A62FB681B8D013B69
:104350009AB2FB681A85FB685B8D9BB2013B9AB2EF
:10436000FB685A85FB681B8D002BAAD17A69B96A54
:10437000F86800F02EFD0346002B0DD0FB681B6C87
:10438000042B07D1FB681B681A68FB681B6842F4A2
:1043900000721A60012316E0FB681B681A68FB684C
:1043A0001B6842F400721A60FB68202283F83D20EB
:1043B000FB68002283F83E20FB68002283F83C2043
:1043C000002300E0022318461837BD4680BD00BF19
:1043D000020010000000FFFF80B58CB002AFF86053
:1043E000084611461A4603467B810B463B8113461D
:1043F000FB8000233B62FFF7A9FA7862FB6893F821
:104400003D30DBB2202B40F044827B6A00931923BD
:1044100001228249F86800F0C5FB0346002B01D059
:10442000022337E2FB6893F83C30012B01D10223D1
:1044300030E2FB68012283F83C20FB681B681B68A4
:1044400003F00103012B07D0FB681B681A68FB68A7
:104450001B6842F001021A60FB681B681A68FB685F
:104460001B6822F400621A60FB68222283F83D2058
:10447000FB68402283F83E20FB6800221A64FB6838
:104480003A6B5A62FB68BA8E5A85FB685B8D9AB2AA
:10449000FB681A85FB68624ADA62F8883A8979898A
:1044A0007B6A0193BB6B00930346F86800F092FAB5
:1044B0000346002B01D00123ECE1FB681B8D002B90
:1044C00013D10023FB61FB681B685B69FB61FB6820
:1044D0001B689B69FB61FB69FB681B681A68FB68CA
:1044E0001B6842F400721A60C0E1FB681B8D012B4F
:1044F0001ED1FB681B681A68FB681B6822F4806287
:104500001A6072B600BF0023BB61FB681B685B6961
:10451000BB61FB681B689B69BB61BB69FB681B686F
:104520001A68FB681B6842F400721A6062B635E0D4
:10453000FB681B8D022B1ED1FB681B681A68FB6889
:104540001B6842F400621A6072B600BF00237B61F0
:10455000FB681B685B697B61FB681B689B697B610F
:104560007B69FB681B681A68FB681B6822F4806221
:104570001A6062B612E0FB681B681A68FB681B6869
:1045800042F480621A6000233B61FB681B685B6930
:104590003B61FB681B689B693B613B6966E1FB68AB
:1045A0001B8D032B00F21F81FB681B8D012B23D178
:1045B0007A6AB96BF86800F04DFC0346002B01D015
:1045C000012367E1FB681B681A69FB685B6AD2B26A
:1045D0001A70FB685B6A5A1CFB685A62FB681B8D89
:1045E000013B9AB2FB681A85FB685B8D9BB2013B6D
:1045F0009AB2FB685A8539E1FB681B8D022B52D1B8
:104600007B6A0093BB6B00220649F86800F0CAFA87
:104610000346002B08D001233CE100BF020010003C
:104620000000FFFF0400010072B600BFFB681B68BA
:104630001A68FB681B6842F400721A60FB681B680A
:104640001A69FB685B6AD2B21A70FB685B6A5A1C13
:10465000FB685A62FB681B8D013B9AB2FB681A85A6
:10466000FB685B8D9BB2013B9AB2FB685A8562B6D0
:1046700000BFFB681B681A69FB685B6AD2B21A70DC
:10468000FB685B6A5A1CFB685A62FB681B8D013B26
:104690009AB2FB681A85FB685B8D9BB2013B9AB2AC
:1046A000FB685A85E2E07B6A0093BB6B00227B4982
:1046B000F86800F077FA0346002B01D00123E9E007
:1046C000FB681B681A68FB681B6822F480621A602A
:1046D00072B600BFFB681B681A69FB685B6AD2B2DE
:1046E0001A70FB685B6A5A1CFB685A62FB681B8D78
:1046F000013B9AB2FB681A85FB685B8D9BB2013B5C
:104700009AB2FB685A85664B1B68DB08654AA2FBB8
:1047100003231A0A13469B001344DA00D31A3B62A0
:104720003B6A013B3B623B6A002B18D1FB680022CD
:104730001A63FB68202283F83D20FB68002283F87F
:104740003E20FB681B6C43F02002FB681A6462B6D3
:1047500000BFFB68002283F83C2001239AE0FB683D
:104760001B685B6903F00403042BD9D1FB681B6849
:104770001A68FB681B6842F400721A60FB681B68C9
:104780001A69FB685B6AD2B21A70FB685B6A5A1CD2
:10479000FB685A62FB681B8D013B9AB2FB681A8565
:1047A000FB685B8D9BB2013B9AB2FB685A8562B68F
:1047B00000BFFB681B681A69FB685B6AD2B21A709B
:1047C000FB685B6A5A1CFB685A62FB681B8D013BE5
:1047D0009AB2FB681A85FB685B8D9BB2013B9AB26B
:1047E000FB685A8542E07A6AB96BF86800F032FBE0
:1047F0000346002B01D001234CE0FB681B681A69BB
:10480000FB685B6AD2B21A70FB685B6A5A1CFB6871
:104810005A62FB681B8D013B9AB2FB681A85FB68E4
:104820005B8D9BB2013B9AB2FB685A85FB681B68A3
:104830005B6903F00403042B18D1FB681B681A6939
:10484000FB685B6AD2B21A70FB685B6A5A1CFB6831
:104850005A62FB681B8D013B9AB2FB681A85FB68A4
:104860005B8D9BB2013B9AB2FB685A85FB681B8D3E
:10487000002B7FF494AEFB68202283F83D20FB6878
:10488000002283F83E20FB68002283F83C200023AE
:1048900000E0022318462837BD4680BD0400010011
:1048A0000001002089B5F81480B588B002AFF86027
:1048B000084611461A4603467B810B463B81134648
:1048C000FB80FB681B681A68FB681B6842F48072F7
:1048D0001A607B6A00933B6A00224FF00111F8686E
:1048E00000F060F90346002B0DD0FB681B681B68C5
:1048F00003F48073B3F5807F03D1FB684FF400723B
:104900001A6403235FE07B89DBB21A46FB681B68ED
:1049100002F0FE021A617B6A3A6A2D49F86800F0DB
:1049200098F90346002B01D001234CE000237B6162
:10493000FB681B685B697B61FB681B689B697B612B
:104940007B697A6A396AF86800F002FA0346002B3C
:104950000DD0FB681B6C042B07D1FB681B681A6821
:10496000FB681B6842F400721A6001232BE0FB888D
:10497000012B05D13B89DAB2FB681B681A6121E083
:104980003B891B0A9BB2DAB2FB681B681A617A6A20
:10499000396AF86800F0DCF90346002B0DD0FB689B
:1049A0001B6C042B07D1FB681B681A68FB681B682B
:1049B00042F400721A60012305E03B89DAB2FB6819
:1049C0001B681A61002318461837BD4680BD00BF1A
:1049D0000200010080B588B002AFF86008461146B9
:1049E0001A4603467B810B463B811346FB80FB68DE
:1049F0001B681A68FB681B6842F480621A60FB68D7
:104A00001B681A68FB681B6842F480721A607B6A34
:104A100000933B6A00224FF00111F86800F0C2F8E1
:104A20000346002B0DD0FB681B681B6803F48073E2
:104A3000B3F5807F03D1FB684FF400721A6403233F
:104A4000AAE07B89DBB21A46FB681B6802F0FE0213
:104A50001A617B6A3A6A5249F86800F0FAF803462C
:104A6000002B01D0012397E000237B61FB681B68CA
:104A70005B697B61FB681B689B697B617B697A6A08
:104A8000396AF86800F064F90346002B0DD0FB6822
:104A90001B6C042B07D1FB681B681A68FB681B683A
:104AA00042F400721A60012376E0FB88012B05D1E5
:104AB0003B89DAB2FB681B681A6121E03B891B0A5B
:104AC0009BB2DAB2FB681B681A617A6A396AF868C5
:104AD00000F03EF90346002B0DD0FB681B6C042B45
:104AE00007D1FB681B681A68FB681B6842F40072F8
:104AF0001A60012350E03B89DAB2FB681B681A6137
:104B00007A6A396AF86800F023F90346002B0DD061
:104B1000FB681B6C042B07D1FB681B681A68FB68D9
:104B20001B6842F400721A60012335E0FB681B68C1
:104B30001A68FB681B6842F480721A607B6A0093F3
:104B40003B6A00224FF00111F86800F02BF8034691
:104B5000002B0DD0FB681B681B6803F48073B3F552
:104B6000807F03D1FB684FF400721A64032313E0C3
:104B70007B89DBB243F00103DAB2FB681B681A6180
:104B80007B6A3A6A0649F86800F063F80346002B2E
:104B900001D0012300E0002318461837BD4680BD30
:104BA0000200010080B584B000AFF860B9603B60DE
:104BB0001346FB7125E03B68B3F1FF3F21D0FEF7C0
:104BC000C5FE0246BB69D31A3A689A4202D33B68D3
:104BD000002B16D1FB6800221A63FB68202283F8A1
:104BE0003D20FB68002283F83E20FB681B6C43F0ED
:104BF0002002FB681A64FB68002283F83C20012332
:104C000023E0BB681B0CDBB2012B0DD1FB681B68DA
:104C10005B69DA43BB6813409BB2002B0CBF0123D6
:104C20000023DBB21A460CE0FB681B689B69DA4381
:104C3000BB6813409BB2002B0CBF01230023DBB2E7
:104C40001A46FB799A42B6D0002318461037BD4663
:104C500080BD80B584B000AFF860B9607A603B6019
:104C600051E0FB681B685B6903F48063B3F5806FF8
:104C700023D1FB681B681A68FB681B6842F400724A
:104C80001A60FB681B686FF480625A61FB6800223F
:104C90001A63FB68202283F83D20FB68002283F81A
:104CA0003E20FB681B6C43F00402FB681A64FB683F
:104CB000002283F83C20012346E07B68B3F1FF3FEC
:104CC00021D0FEF743FE02463B68D31A7A689A4227
:104CD00002D37B68002B16D1FB6800221A63FB68A5
:104CE000202283F83D20FB68002283F83E20FB68E9
:104CF0001B6C43F02002FB681A64FB68002283F8F7
:104D00003C20012320E0BB681B0CDBB2012B0CD143
:104D1000FB681B685B69DA43BB6813409BB2002BDE
:104D200014BF01230023DBB20BE0FB681B689B6907
:104D3000DA43BB6813409BB2002B14BF012300234E
:104D4000DBB2002B8DD1002318461037BD4680BD45
:104D500080B584B000AFF860B9607A602DE0F86883
:104D600000F0CEF80346002B01D001232DE0BB68F4
:104D7000B3F1FF3F21D0FEF7E9FD02467B68D31A6D
:104D8000BA689A4202D3BB68002B16D1FB68002296
:104D90001A63FB68202283F83D20FB68002283F819
:104DA0003E20FB681B6C43F02002FB681A64FB6822
:104DB000002283F83C20012307E0FB681B685B6945
:104DC00003F08003802BCAD1002318461037BD465C
:104DD00080BD80B584B000AFF860B9607A602DE026
:104DE000F86800F08DF80346002B01D001232DE078
:104DF000BB68B3F1FF3F21D0FEF7A8FD02467B68F8
:104E0000D31ABA689A4202D3BB68002B16D1FB684A
:104E100000221A63FB68202283F83D20FB680022F1
:104E200083F83E20FB681B6C43F02002FB681A6489
:104E3000FB68002283F83C20012307E0FB681B6825
:104E40005B6903F00403042BCAD100231846103712
:104E5000BD4680BD80B584B000AFF860B9607A60AF
:104E600042E0FB681B685B6903F01003102B19D14B
:104E7000FB681B686FF010025A61FB6800221A631E
:104E8000FB68202283F83D20FB68002283F83E2047
:104E9000FB681A6CFB681A64FB68002283F83C20EC
:104EA000012329E0FEF752FD02467B68D31ABA6857
:104EB0009A4202D3BB68002B16D1FB6800221A630A
:104EC000FB68202283F83D20FB68002283F83E2007
:104ED000FB681B6C43F02002FB681A64FB6800222D
:104EE00083F83C20012307E0FB681B685B6903F043
:104EF0004003402BB5D1002318461037BD4680BD76
:104F000080B483B000AF78607B681B685B6903F492
:104F10008063B3F5806F1BD17B681B686FF4806280
:104F20005A617B6800221A637B68202283F83D2047
:104F30007B68002283F83E207B681B6C43F00402F0
:104F40007B681A647B68002283F83C20012300E020
:104F5000002318460C37BD4680BC704780B586B02C
:104F600000AF78607B68002B01D1012372E27B687F
:104F70001B6803F00103002B00F08780924B5B68F5
:104F800003F00C03042B0CD08F4B5B6803F00C0375
:104F9000082B12D18C4B5B6803F48033B3F5803F50
:104FA0000BD1894B1B6803F40033002B6CD07B685A
:104FB0005B68002B68D101234CE27B685B68B3F52A
:104FC000803F06D1804B1B687F4A43F480331360D7
:104FD0002EE07B685B68002B0CD17B4B1B687A4A08
:104FE00023F480331360784B1B68774A23F48023C3
:104FF00013601DE07B685B68B3F5A02F0CD1724B8A
:105000001B68714A43F4802313606F4B1B686E4A20
:1050100043F4803313600BE06B4B1B686A4A23F444
:1050200080331360684B1B68674A23F48023136046
:105030007B685B68002B13D0FEF788FC386108E0C2
:10504000FEF784FC02463B69D31A642B01D9032383
:1050500000E25D4B1B6803F40033002BF0D014E03A
:10506000FEF774FC386108E0FEF770FC02463B690D
:10507000D31A642B01D90323ECE1534B1B6803F4CF
:105080000033002BF0D100E000BF7B681B6803F009
:105090000203002B63D04C4B5B6803F00C03002B26
:1050A0000BD0494B5B6803F00C03082B1CD1464B1B
:1050B0005B6803F48033002B16D1434B1B6803F06D
:1050C0000203002B05D07B681B69012B01D0012353
:1050D000C0E13D4B1B6823F0F8027B685B69DB0095
:1050E000394913430B603AE07B681B69002B20D0E1
:1050F000364B01221A60FEF729FC386108E0FEF702
:1051000025FC02463B69D31A022B01D90323A1E1F6
:105110002D4B1B6803F00203002BF0D02A4B1B68B9
:1051200023F0F8027B685B69DB00274913430B60BF
:1051300015E0264B00221A60FEF708FC386108E0F3
:10514000FEF704FC02463B69D31A022B01D9032364
:1051500080E11D4B1B6803F00203002BF0D17B683C
:105160001B6803F00803002B3AD07B689B69002B77
:1051700019D0174B01221A60FEF7E8FB386108E0EE
:10518000FEF7E4FB02463B69D31A022B01D9032345
:1051900060E10D4B5B6A03F00203002BF0D00120AD
:1051A00000F0C4FA1CE00A4B00221A60FEF7CEFBA6
:1051B00038610FE0FEF7CAFB02463B69D31A022BA7
:1051C00008D9032346E100BF00100240000042421C
:1051D00080044242924B5B6A03F00203002BE9D148
:1051E0007B681B6803F00403002B00F0A6800023FB
:1051F000FB758B4BDB6903F08053002B0DD1884B83
:10520000DB69874A43F08053D361854BDB6903F048
:105210008053BB60BB680123FB75824B1B6803F4A2
:105220008073002B18D17F4B1B687E4A43F4807338
:105230001360FEF78BFB386108E0FEF787FB024640
:105240003B69D31A642B01D9032303E1754B1B6817
:1052500003F48073002BF0D07B68DB68012B06D150
:105260006F4B1B6A6E4A43F0010313622DE07B68AB
:10527000DB68002B0CD16A4B1B6A694A23F00103DF
:105280001362674B1B6A664A23F0040313621CE037
:105290007B68DB68052B0CD1614B1B6A604A43F0CD
:1052A000040313625E4B1B6A5D4A43F00103136201
:1052B0000BE05B4B1B6A5A4A23F001031362584B05
:1052C0001B6A574A23F0040313627B68DB68002BD8
:1052D00015D0FEF73BFB38610AE0FEF737FB0246CC
:1052E0003B69D31A41F28832934201D90323B1E0DA
:1052F0004B4B1B6A03F00203002BEED014E0FEF7C9
:1053000025FB38610AE0FEF721FB02463B69D31A10
:1053100041F28832934201D903239BE0404B1B6A40
:1053200003F00203002BEED1FB7D012B05D13C4B9A
:10533000DB693B4A23F08053D3617B68DB69002B38
:1053400000F08780364B5B6803F00C03082B61D0BC
:105350007B68DB69022B46D1334B00221A60FEF7D3
:10536000F5FA386108E0FEF7F1FA02463B69D31A14
:10537000022B01D903236DE0294B1B6803F0007356
:10538000002BF0D17B681B6AB3F5803F08D1244B1A
:105390005B6823F400327B689B68214913434B60B0
:1053A0001F4B5B6823F474127B68196A7B685B6A25
:1053B0000B431B4913434B601B4B01221A60FEF742
:1053C000C5FA386108E0FEF7C1FA02463B69D31A14
:1053D000022B01D903233DE0114B1B6803F000733E
:1053E000002BF0D035E0104B00221A60FEF7AEFA29
:1053F000386108E0FEF7AAFA02463B69D31A022B8D
:1054000001D9032326E0064B1B6803F00073002B31
:10541000F0D11EE07B68DB69012B07D1012319E085
:105420000010024000700040600042420B4B5B687D
:10543000FB60FB6803F480327B681B6A9A4206D1EA
:10544000FB6803F470127B685B6A9A4201D0012307
:1054500000E0002318461837BD4680BD001002400A
:1054600080B584B000AF786039607B68002B01D1D3
:105470000123D0E06A4B1B6803F007033A689A42A5
:1054800010D9674B1B6823F0070265493B6813433B
:105490000B60634B1B6803F007033A689A4201D024
:1054A0000123B8E07B681B6803F00203002B20D0C7
:1054B0007B681B6803F00403002B05D0594B5B6825
:1054C000584A43F4E06353607B681B6803F00803A9
:1054D000002B05D0534B5B68524A43F46053536032
:1054E000504B5B6823F0F0027B689B684D49134387
:1054F0004B607B681B6803F00103002B40D07B6886
:105500005B68012B07D1474B1B6803F40033002B6A
:1055100015D101237FE07B685B68022B07D1414BEB
:105520001B6803F00073002B09D1012373E03D4B8E
:105530001B6803F00203002B01D101236BE0394B00
:105540005B6823F003027B685B68364913434B605A
:10555000FEF7FCF9F8600AE0FEF7F8F90246FB688E
:10556000D31A41F28832934201D9032353E02D4BE1
:105570005B6803F00C027B685B689B009A42EBD18E
:10558000274B1B6803F007033A689A4210D2244B5A
:105590001B6823F0070222493B6813430B60204B32
:1055A0001B6803F007033A689A4201D0012332E0F6
:1055B0007B681B6803F00403002B08D0194B5B6861
:1055C00023F4E0627B68DB68164913434B607B6819
:1055D0001B6803F00803002B09D0124B5B6823F40F
:1055E00060527B681B69DB000E4913434B6000F07F
:1055F00021F802460B4B5B681B0903F00F030A49B5
:10560000CB5C22FA03F3094A1360094B1B68184666
:10561000FEF75AF9002318461037BD4680BD00BF7B
:105620000020024000100240C0820008000100205B
:105630000401002090B48AB000AF294B3C1D0FCB71
:1056400084E80F0040F201233B800023FB6100232C
:10565000BB6100237B6200237B6100233B62214B03
:105660005B68FB61FB6903F00C03042B02D0082B81
:1056700003D02BE01C4B3B622BE0FB699B0C03F03F
:105680000F0328333B4413F8243C7B61FB6903F48C
:105690008033002B12D0134B5B685B0C03F00103CB
:1056A00028333B4413F8283CBB617B690E4A03FB5B
:1056B00002F2BB69B2FBF3F37B6204E07B690B4A45
:1056C00002FB03F37B627B6A3B6202E0064B3B62B8
:1056D00000BF3B6A18462837BD4690BC704700BFE4
:1056E000B08200080010024000127A0000093D005C
:1056F00080B400AF024B1B681846BD4680BC7047A3
:105700000001002080B500AFFFF7F2FF0246054B15
:105710005B681B0A03F007030349CB5C22FA03F31F
:10572000184680BD00100240D082000880B485B0C9
:1057300000AF78600A4B1B680A4AA2FB03235B0A8E
:105740007A6802FB03F3FB6000BFFB685A1EFA6035
:10575000002BF9D100BF00BF1437BD4680BC704795
:1057600000010020D34D621080B582B000AF786098
:105770007B68002B01D1012376E07B685B6A002BFC
:1057800008D17B685B68B3F5827F09D07B68002213
:10579000DA6105E07B6800221A617B6800225A61A9
:1057A0007B6800229A627B6893F85130DBB2002B51
:1057B00006D17B68002283F850207868FDF75CFFF3
:1057C0007B68022283F851207B681B681A687B681B
:1057D0001B6822F040021A607B685B6803F48272E7
:1057E0007B689B6803F404431A437B68DB6803F41B
:1057F00000631A437B681B6903F002031A437B684A
:105800005B6903F001031A437B689B6903F400732F
:105810001A437B68DB6903F038031A437B681B6A11
:1058200003F0800342EA03017B689B6A03F40052A1
:105830007B681B680A431A607B689B691A0C7B684B
:105840001B6802F004025A607B681B68DA697B6897
:105850001B6822F40062DA617B6800225A657B686B
:10586000012283F85120002318460837BD4680BD29
:1058700080B588B000AFF860B9603B601346FB802C
:105880000023FB77FB6893F85030012B01D10223F2
:1058900026E1FB68012283F85020FEF757F8B86133
:1058A000FB88FB82FB6893F85130DBB2012B02D0FE
:1058B0000223FB770BE1BB68002B02D0FB88002B97
:1058C00002D10123FB7702E1FB68032283F8512018
:1058D000FB6800225A65FB68BA681A63FB68FA889D
:1058E0009A86FB68FA88DA86FB6800229A63FB686E
:1058F00000229A87FB680022DA87FB6800225A643C
:10590000FB6800221A64FB689B68B3F5004F0FD157
:10591000FB681B681A68FB681B6822F040021A606B
:10592000FB681B681A68FB681B6842F480421A60B7
:10593000FB681B681B6803F04003402B07D0FB6823
:105940001B681A68FB681B6842F040021A60FB681B
:10595000DB68B3F5006F4BD1FB685B68002B02D0AE
:10596000FB8A012B3ED1FB681B6B1A88FB681B6806
:10597000DA60FB681B6B9A1CFB681A63FB68DB8EA2
:105980009BB2013B9AB2FB68DA862BE0FB681B688E
:105990009B6803F00203022B12D1FB681B6B1A8871
:1059A000FB681B68DA60FB681B6B9A1CFB681A6358
:1059B000FB68DB8E9BB2013B9AB2FB68DA8611E092
:1059C000FDF7C4FF0246BB69D31A3A689A4203D86E
:1059D0003B68B3F1FF3F02D13B68002B02D10323A8
:1059E000FB7774E0FB68DB8E9BB2002BCED14CE0E2
:1059F000FB685B68002B02D0FB8A012B40D1FB685F
:105A00001A6BFB681B680C3312781A70FB681B6BEF
:105A10005A1CFB681A63FB68DB8E9BB2013B9AB28F
:105A2000FB68DA862CE0FB681B689B6803F00203C6
:105A3000022B13D1FB681A6BFB681B680C331278BE
:105A40001A70FB681B6B5A1CFB681A63FB68DB8EC1
:105A50009BB2013B9AB2FB68DA8611E0FDF776FF54
:105A60000246BB69D31A3A689A4203D83B68B3F13D
:105A7000FF3F02D13B68002B02D10323FB7726E0D6
:105A8000FB68DB8E9BB2002BCDD1BA693968F86810
:105A900000F054FA0346002B02D0FB6820225A651E
:105AA000FB689B68002B0AD100233B61FB681B68E5
:105AB000DB683B61FB681B689B683B613B69FB687B
:105AC0005B6D002B02D00123FB7700E000BFFB6879
:105AD000012283F85120FB68002283F85020FB7FCD
